:020000040800F2
:1000000008040020D500000891160008F10D000832
:1000100000000000000000000000000000000000E0
:100020000000000000000000000000004D17000864
:100030000000000000000000D91600084F1700085B
:10004000E7000008E7000008E7000008E7000008F4
:10005000E7000008E7000008E7000008E7000008E4
:10006000E7000008E7000008E7000008E7000008D4
:10007000E7000008E700000800000000E7000008B3
:1000800000000000E7000008000000000000000081
:10009000E700000800000000E7000008E700000893
:1000A000E7000008E7000008E7000008E700000894
:1000B000E7000008E7000008E7000008E700000884
:1000C0000348854600F022FA0048004779180008E6
:1000D000080400200448804704480047FEE7FEE784
:1000E000FEE7FEE7FEE7FEE7D1170008C1000008C3
:1000F00030B50B46014600202022012409E00D46C0
:10010000D5409D4205D31D469540491B2546954047
:1001100040191546521E002DF1DC30BD024670B567
:100120004A40D30FDB0740002DD04A002AD0010EF1
:10013000140E000212020919400A520A8418E5013D
:1001400004465443000A120A2E045043A4194219CB
:10015000200CC543AA18120C0125AD03521C5219DC
:1001600012047F39240400D0521C104301D44000F3
:10017000491EC2B20C06C0092018401C4008802A43
:1001800002D003E0002070BD40084000002900DAE2
:100190000020184370BD0000F0B5074608465840DF
:1001A00087B0C00F049048000E4659004008490827
:1001B000BC1A884105D2384631461E4617460B46C2
:1001C00002465800400810434CD0300D03904005C3
:1001D0005900400D490D0590401A0290402872DAEE
:1001E00018030121000B09050843019004980092AF
:1001F000002805D0019952420020884100920190C8
:10020000029840210A1A0199009800F0BBF80546AF
:100210000C466B4607CB00F0C5F8C0197141039A34
:100220000E0D0023D71756401A467A40164344D085
:10023000049A002A2DD0029A012A039A15DC12058D
:10024000C01A914101263605001C7141D20F059E4E
:10025000D2070093019202962A46234600F003F942
:1002600007B0F0BD38463146FAE71605224A0F4678
:10027000B218C01AB74101210905001C4F410018EE
:100280007F41114618187941E20F10436D196441FE
:1002900013E0E2076D0815436408C2071443039A8C
:1002A00001261205C01A91413605001C7141CE0786
:1002B000400830434908C01851412A46234600F0FF
:1002C000C5F8CDE7FFE7049801224000C117121AD4
:1002D00000238B4104983146C417381AA141EEE738
:1002E00030B40124E407634030BC55E730B4012446
:1002F000E407614030BC4FE70000E0FF41004002EE
:100300000122400AD205090E80187F2901DA002057
:100310007047962903DC9622511AC84070479639D7
:1003200088407047C20FD207400040080BD0C10D73
:100330000723DB01C91840020905400A1143C2081E
:10034000400711437047002001467047CB0FDB0781
:10035000490010B5490802460A4307D00A0D072490
:100360000903E401090B121B002A01DC002010BD67
:10037000C900440F0C43C100E018D205801800F0FA
:1003800024F810BD10B5202A04DB0146203A914024
:10039000002010BD914020239C1A0346E3401943DE
:1003A000904010BD10B5202A06DBCB170846203A36
:1003B0001041C1170B4306E00B461341D0402024E7
:1003C000A21A91400843194610BD002904DA401CC6
:1003D000490001D140084000704770B40024050C6A
:1003E00005D11024000402D1002921D01124050ECA
:1003F00001D100020834050F01D10001241D850F31
:1004000001D18000A41C002801DB4000641C0029ED
:1004100008D020252E1B0D46F540A14000D001211B
:100420002943084301061B1B000ADB1D02D50020DF
:1004300070BC7047DB05181880180029F8DA401CDA
:100440004900F5D170BC40084000704710B5002B42
:1004500008DA0024401C614192185B411A4301D123
:100460004008400010BDF0B51FB482B005460C0036
:1004700003D0084601F0D6F902E001F0D3F92030AC
:100480000246009021462846FFF77CFF049B059A10
:1004900004460F4618431143084314D0184610432E
:1004A0001BD0009840210A1A1846059900F040F820
:1004B00005460E46009A05990498FFF763FF084326
:1004C00005D0012004E02046394607B0F0BD0020E9
:1004D000C11705430E432C43374300990E9863051B
:1004E000401A7905E40A00220C43FD0A0A3002D5BD
:1004F00000200146E9E70105101969410C9C0D9D9A
:1005000000196941FFF7A2FFDFE70000064C012553
:10051000064E05E0E36807CC2B430C3C98471034AB
:10052000B442F7D3FFF7D0FDD4480008F4480008E0
:1005300010B5202A04DB0846203AD040002110BD27
:100540000B46D340D0402024A21A914008431946BC
:1005500010BD31B500F0CAF8044600F0C7F80099A4
:10056000001B8842F9D338BDF8B500230124A2E06E
:1005700027469F403A4070D04D68022D01D0122D81
:1005800014D1DD08AD002D1800952D6A5E07AC462C
:10059000F50E0F26AE46AE406546B543AC460E6935
:1005A0007546AE4065462E43009D2E624D68012D76
:1005B00005D0022D03D0112D01D0122D16D1856842
:1005C0000326AC465D00AE46AE406546B543AC463C
:1005D000CE687546AE4065462E43866046680D7906
:1005E000BE43ED06ED0F9D403543456006685F0054
:1005F0000325BD40AE46AE430D79B446AE07B60FF7
:10060000BE4065462E430660C6687546AE438D689B
:10061000BD403543C5604D68ED004BD5294D6E6B2F
:1006200026436E639E08284DB6007519AC46AD682A
:100630009E07360F0F27B740BD4305273F07B84237
:1006400001D1002715E0214FB84201D1012710E068
:100650001F4FB84202D102270BE02BE01D4FB842DA
:1006600001D1032705E01C4FB84201D1052700E066
:100670000627B7402F436546AF60184D2E684F6878
:100680009643FF0300D516432E606E684F6896436D
:10069000BF0300D516436E60AE684F689643FF02F5
:1006A00000D51643AE60EE684F689643BF0200D592
:1006B0001643EE605B1C0A681546DD4000D057E724
:1006C000F8BD00000010024000000140000400508E
:1006D00000080050000C0050001C005000040140B5
:1006E000002A01D08161704781627047014800682B
:1006F000704700000000002002480168491C0160AA
:10070000704700000000002010B506480168402234
:1007100011430160002000F007F800F019F80020F4
:1007200010BD00000020024010B5044607487D219E
:10073000C9000068FFF7DCFC00F03EFB0022214608
:10074000501E00F006F8002010BD0000040000203C
:10075000704710B500F09EFF10BD0000F8B50546CB
:1007600053480E460068C007C00FB0420AD2504836
:10077000016849084900314301600068C007C00FA3
:10078000B0426FD128784B4C800705D5E068F02146
:100790008843A9680843E0602878C00752D0686899
:1007A000022817D0032818D02168012818D08905FD
:1007B000002957DAE168890889000143E160FFF701
:1007C00095FF69680746022912D003291CD0012928
:1007D00026D033E021688903EAE721688901E7E749
:1007E0004907E5E7FFF782FFC11B3348814223D861
:1007F000E0680007800F0228F4D123E0FFF776FFBE
:10080000C11B2D48814217D8E0680007800F0328DC
:10081000F4D117E0FFF76AFFC11B274881420BD8CC
:10082000E0680007800F0128F4D10BE0FFF75EFFBE
:10083000C11B2148814201D90320F8BDE0680007AF
:10084000800FF3D11A480168C907C90FB1420BD90B
:10085000016849084900314301600068C007C00FC2
:10086000B04201D00120F8BD2878400706D5E068E5
:10087000072109028843E9680843E06028780007F7
:1008800007D5E0680721C90288432969C9000843E0
:10089000E06000F01DF8E168084A0906090F515CA4
:1008A000C840074908600020FFF73EFF0020F8BD60
:1008B000002002400010024088130000BA480008DF
:1008C0000400002001480068704700000400002078
:1008D00010B5184AD1680C20084004280BD008280D
:1008E00010D00C2810D050680004410F0120C00324
:1008F000491C884010BD1068C00601D50E4810BDC7
:100900000E4810BD0E4810BD88020E4B000F185C3B
:100910000902D368890F491CDB0301D5084A05E0A9
:100920001268D20601D5044A00E0044A5043FFF79A
:10093000DFFB10BD0010024000093D000024F40060
:1009400000127A00CA480008F8B504460078FE4D47
:10095000C0074AD0E8680007800F022807D0E8687F
:100960000007800F032809D1E868C00306D528686E
:1009700080033AD56068002873D036E001206268B1
:100980000004824203D129680143296011E0052354
:1009900001211B0489049A422A6802D10A432A6071
:1009A000F1E782432A602A6802400092286888435F
:1009B0002860606800280CD0FFF798FE064604E027
:1009C000FFF794FE801B64287ED828688003F7D543
:1009D0000BE0FFF78BFE064604E0FFF787FE801B67
:1009E0006428F1D828688003F7D42078800741D59F
:1009F000E8681F270007800F3F02012807D0E8683A
:100A00000007800F032809D1E868C00306D42868CE
:100A1000400717D5E068012823D113E0E0680028DB
:100A200017D029680922914301432960FFF75EFE30
:100A3000064604E0FFF75AFE801B0228C4D8286847
:100A40004007F7D568682169B84309020843686020
:100A500010E02868400840002860FFF747FE06467F
:100A600005E095E0FFF742FE801B0228ACD828681D
:100A70004007F7D42078C00672D5E868B34E000767
:100A8000800F0AD0E06900282868B1495AD008438D
:100A90002860FFF72BFE074644E02868800502D552
:100AA000E069002874D0606A69683140884212D9D0
:100AB00000F014FE0028AFD16868616AB0430843B3
:100AC00068606868000200E0DCE0218C000A09062A
:100AD000084368600FE06968B14301436960686872
:100AE000218C0002000A090608436860606A00F071
:100AF000F5FD002890D1606A410B0120C003491C1C
:100B00008840E96809060A0F9249895CC840924901
:100B100008600020FFF708FE22E0FFF7E7FDC01B9A
:100B200002288BD828688005F7D56868616AB043C9
:100B3000084368606868218C0002000A09060843BF
:100B400068600DE088432860FFF7D0FD064604E0AA
:100B5000FFF7CCFD801B022888D828688005F7D4D1
:100B600020787E4E000723D560690028306910D0B8
:100B7000012108433061FFF7B9FD074604E0FFF7A4
:100B8000B5FDC01B02287DD830698007F7D50FE07E
:100B900001E1400840003061FFF7A8FD074604E08E
:100BA000FFF7A4FDC01B02286CD830698007F7D47A
:100BB0002078400760D5A86B0027C00005D4A86B3B
:100BC000012109070843A863012765480168C90591
:100BD00011D40168821511430160FFF787FD009071
:100BE00005E0FFF783FD0099401A64284AD85C4865
:100BF0000068C005F5D55648A268824203D1316924
:100C00000143316111E001218902002A07D0052347
:100C10001B029A4203D132690A433261EFE732691B
:100C200082433261306988433061A06800280ED069
:100C3000FFF75CFD009006E0FFF758FD0099411AB0
:100C4000484881421ED830698005F5D50DE0FFF790
:100C50004DFD009006E0FFF749FD0099411A41481B
:100C600081420FD830698005F5D4002F04D0A96BDC
:100C7000012000078143A9632078800630D53A48D7
:100C8000421400E080E0A169002916D0AB68012180
:100C90000B43AB606B6B0B436B63016A11430162E7
:100CA000FFF724FD064604E0FFF720FD801B022825
:100CB0006AD8A8688007F7D512E0A96849084900F2
:100CC000A960016A91430162FFF710FD064604E046
:100CD000FFF70CFD801B022856D8A8688007F7D4C0
:100CE000A06A002855D0E9680907890F032952D066
:100CF000012636060228286805D0B0432860FFF791
:100D0000F5FC044642E0B0432860FFF7EFFC0746DD
:100D100004E0FFF7EBFCC01B022835D828688001EF
:100D2000F7D4216BE06AEA680843616BFD231B047A
:100D30009A4311430843E860286830432860FFF76E
:100D4000D5FC044617E000000010024000E000005F
:100D500000010000BA4800080400002040100240D2
:100D6000007000408813000000000140FFF7BEFC47
:100D7000001B022808D828688001F7D509E0FFF792
:100D8000B5FC001B022801D90320F8BD28688001AA
:100D9000F5D40020F8BD0120F8BD0000042204496C
:100DA0000428086902D09043086170471043FBE7AC
:100DB00000E000E070470000094910B5401E88427D
:100DC00001D9012010BD074C60610321081F00F00C
:100DD00061FC0020A06107202061002010BD000000
:100DE000FFFFFF0000E000E010B5FFF7E3FF10BDDC
:100DF000FEE7F8B504461D4616460F462A2000F0C9
:100E0000EBFB204600F0DAFB304600F0D7FB2B204E
:100E100000F0E2FB384600F0D1FB284600F0CEFBA4
:100E20002C2000F0D9FBF8BD10B514460B46024645
:100E3000FFF7DFFF204600F0C1FB10BDFFB581B01A
:100E40001F4616460C465B1E521E0198FFF7D1FF47
:100E500008E0019D03E00A9800F0B0FB6D1CB5426C
:100E6000F9D3641CBC42F4D305B0F0BD10B50E48F4
:100E700086B0C26A01210A43C262C06A05240840E2
:100E800005903F20009003200191029124070390D8
:100E900069462046FFF768FB01223F212046FFF705
:100EA0001FFC06B010BD00000010024010B5FFF797
:100EB000DDFF05242407002204212046FFF710FC53
:100EC000642000F0D5FC012204212046FFF708FC35
:100ED000642000F0CDFC012220212046FFF700FC19
:100EE000642000F0C5FC112000F076FB782000F0B3
:100EF000BFFCCF2000F070FB002000F07FFBC12082
:100F000000F07CFB302000F079FBED2000F064FB6A
:100F1000642000F073FB032000F070FB122000F04F
:100F20006DFB812000F06AFBE82000F055FB852076
:100F300000F064FB002000F061FB792000F05EFB14
:100F4000CB2000F049FB392000F058FB2C2000F0AA
:100F500055FB002000F052FB342000F04FFB022034
:100F600000F04CFBF72000F037FB202000F046FBA0
:100F7000EA2000F031FB002000F040FB002000F0F0
:100F80003DFBC02000F028FB1D2000F037FBC120F6
:100F900000F022FB122000F031FBC52000F01CFB0A
:100FA000332000F02BFB3F2000F028FBC72000F08F
:100FB00013FB922000F022FB3A2000F00DFB55209D
:100FC00000F01CFB362000F007FB082000F016FBA9
:100FD000B12000F001FB002000F010FB122000F017
:100FE0000DFBB62000F0F8FA0A2000F007FBA22063
:100FF00000F004FB442000F0EFFA022000F0FEFABB
:10100000F22000F0E9FA002000F0F8FA262000F0C3
:10101000E3FA012000F0F2FAE02000F0DDFA0F2000
:1010200000F0ECFA222000F0E9FA1C2000F0E6FAC9
:101030001B2000F0E3FA082000F0E0FA0F2000F097
:10104000DDFA482000F0DAFAB82000F0D7FA3420B0
:1010500000F0D4FA052000F0D1FA0C2000F0CEFA0E
:10106000092000F0CBFA0F2000F0C8FA072000F0AA
:10107000C5FA002000F0C2FAE12000F0ADFA00202D
:1010800000F0BCFA232000F0B9FA242000F0B6FAF0
:10109000072000F0B3FA102000F0B0FA072000F0AB
:1010A000ADFA382000F0AAFA472000F0A7FA4B204A
:1010B00000F0A4FA0A2000F0A1FA132000F09EFA32
:1010C000062000F09BFA302000F098FA382000F05B
:1010D00095FA0F2000F092FA292000F07DFA10BD59
:1010E000FFB587B0119F0446049078080390C008AC
:1010F0007843203A0190D0B2099008980899C31912
:1011000003985B1E22182046521EFFF772FE00262F
:1011100035E0102F20D0202F34D109981A498001B2
:101120004018805D002505901298002818D00120F5
:101130000599A840084204D020460A9A0899FFF76A
:1011400073FE0498641C211A0398814212D10898F6
:10115000049C401C089011E009980C490001DFE74D
:1011600001200599A840084201D00A9800E0109893
:1011700000F024FA6D1CEDB2082DD5D3761C019831
:101180008642C6D30BB0F0BD542C0008642600087C
:10119000FFB583B0154606460E9F0D9C10E0102C3F
:1011A00013D0182C1BD0202C0DD10C98694691C15E
:1011B0002A463046069B049900F0DCF83619AD1C2F
:1011C00028780028EBD107B0F0BD0C98694691C192
:1011D0002A463046069B049900F00CF8EEE70C987E
:1011E000694691C12A463046069B049900F062F890
:1011F000E4E70000FFB585B0054601900F980F9910
:10120000C008484304900520002403902046222172
:1012100048432749079A0B5C1278934241D1401802
:10122000029041780798407881423AD10F99069808
:101230006A18431801462846521E5B1EFFF7D9FD67
:1012400000272BE002980026C01900901098002873
:101250000098817813D00120B040014204D0284684
:10126000089A0699FFF7E0FD01986D1C291A0F985E
:1012700081420DD10698019D401C06900CE0012092
:10128000B040014201D0089800E00E9800F096F9B5
:10129000761CF6B2082ED9D37F1CFFB20498874281
:1012A000D0D30398641C8442B0D309B0F0BD0000D1
:1012B00014440008FFB585B0054601900F980F99BA
:1012C000C0084843049005200024039020464A218A
:1012D00048432749079A0B5C1278934241D1401842
:1012E000029041780798407881423AD10F99069848
:1012F0006A18431801462846521E5B1EFFF779FD07
:1013000000272BE002980026C019009010980028B2
:101310000098817813D00120B040014204D02846C3
:10132000089A0699FFF780FD01986D1C291A0F98FD
:1013300081420DD10698019D401C06900CE00120D1
:10134000B040014201D0089800E00E9800F036F954
:10135000761CF6B2082ED9D37F1CFFB204988742C0
:10136000D0D30398641C8442B0D309B0F0BD000010
:10137000BE440008FFB585B0054601900F980F994F
:10138000C008484304900520002403902046822191
:1013900048432749079A0B5C1278934241D1401881
:1013A000029041780798407881423AD10F99069887
:1013B0006A18431801462846521E5B1EFFF719FDA6
:1013C00000272BE002980026C019009010980028F2
:1013D0000098817813D00120B040014204D0284603
:1013E000089A0699FFF720FD01986D1C291A0F989D
:1013F00081420DD10698019D401C06900CE0012011
:10140000B040014201D0089800E00E9800F0D6F8F4
:10141000761CF6B2082ED9D37F1CFFB204988742FF
:10142000D0D30398641C8442B0D309B0F0BD00004F
:1014300030460008FFB585B0109F1D467E08204944
:101440001046FEF76BFEFEF759FF0024049033E0D0
:10145000281B401EC1B20A2000F0BAFA01460498C7
:10146000FEF746FE0A21FEF743FEA81E03918442C2
:1014700010D100210F9A00920291059970430197B3
:1014800040182E220E9B0699FFF72AFE641C6D1C45
:10149000E4B2EDB20020029003980F993030009131
:1014A000C2B2204605997043019740180E9B0699D9
:1014B000FFF716FE641CE4B2AC42C9D309B0F0BD1C
:1014C0000000C842FFB585B00026109F1D46780871
:1014D0003446039031E0281B401EC1B20A2000F0C0
:1014E00077FA01460798FEF703FE0A21FEF700FE91
:1014F000002E05D1681E844202DA00290DD0012693
:1015000000200F9A303100920290CAB203980599D8
:101510006043019740180E9B0AE000200F9902904B
:10152000009103980599604340180E9B0197202273
:101530000699FFF7D5FD641CE4B2AC42CBD309B0E9
:10154000F0BDFFB581B0039A1F46CB198218002564
:10155000521E5B1EFFF74DFC002612E000240DE03A
:10156000680000900A99085C00F032F80A99009827
:101570004018407800F02CF8641C6D1CBC42EFD37E
:10158000761C03988642E9D305B0F0BDFFB583B061
:101590000D9F144605467E080BE00C990E980197A6
:1015A000009102902846069B0499FFF799FD751952
:1015B000641C2278002AF0D107B0F0BD10B50446B3
:1015C0000004000E00F01AF8E0B200F017F810BDA9
:1015D00010B500F013F810BD70B5052405462407BA
:1015E000002208212046FFF77BF8284600F006F885
:1015F000012208212046FFF773F870BD70B505265B
:1016000005463607002210213046FFF769F800240E
:10161000002201213046FFF763F8280601D5012298
:1016200000E0002202213046FFF75AF8012211465D
:101630003046FFF755F86806641C050EE4B2082C26
:10164000E6D3012210213046FFF74AF870BD0000B2
:1016500030B50E4987B0CA6A01200243CA62C96A1E
:10166000C4030140019002900094032005250591D8
:101670002D07039069462846FEF776FF0122214692
:101680002846FFF72DF807B030BD000000100240DB
:10169000704700008307FF22DB0E9A408907090E7E
:1016A000994000280BDA0007000F08388308084823
:1016B0009B001818C36993430B43C36170478308A9
:1016C00004489B001B181868904308431860704733
:1016D00000ED00E000E400E07047000070B517493D
:1016E0000023CA681206120F18D18A6B154CD50058
:1016F000134A02D51268224009E08E6B01252D079E
:101700002E438E6312688E6B2240AE438E63A242DC
:1017100004D103218903884200D101230A480168CA
:1017200049084900194301600068C007C00F98428A
:1017300001D0012070BD002070BD000000100240EB
:10174000007000400018000000200240704710B5F3
:10175000FEF7D2FFFFF748FB10BD000010B51B4895
:1017600094B001680322D2029143C2148918016027
:101770000220009001210A90039140040C90000186
:10178000102100240D900B9404916846FFF7DCF8BB
:101790000F200E9003200F901094119401211294A9
:1017A0000EA8FEF7DBFFFFF78DF87D21C900FEF7DD
:1017B0009FFCFFF701FB0420FFF7F0FA002211461F
:1017C000501EFEF7C6FF14B010BD000000700040B0
:1017D00010480168821511430160C1680E4A11402A
:1017E000C16001680D4A11400160816849084900E3
:1017F000816001680122920491430160C168FD2269
:1018000012049143C160002101610549C003886051
:1018100070470000001002400C40FF88F6FFF6FE03
:1018200000ED00E02021020C01D010211046020A38
:1018300001D010460839020901D01046091F82085C
:1018400001D01046891E420801D0881E7047081A30
:10185000704702E008C8121F08C1002AFAD1704779
:101860007047002001E001C1121F002AFBD1704720
:1018700010B5FEF76EFE10BD1FB500200390FEF7F9
:1018800043FFFFF76BFFFFF7E3FEFFF70FFB404C53
:10189000FF2300214133F02208460094FFF7CEFADF
:1018A000012105200022C9030007FEF719FF0026C9
:1018B00020201F27364CFF0201903B4635A23146BF
:1018C000029600943046FFF763FC10253B4634A295
:1018D00028210020029601950094FFF757FE03236C
:1018E000F02228213020009702950194FFF7EAFDAD
:1018F0003B462DA228215020029601950094FFF727
:1019000045FEFF22032341322821802000970295C3
:101910000194FFF7D7FD3B4623A2282150200296D1
:1019200001950094FFF732FE3B4621A2462100209C
:10193000029601950094FFF729FE04230097029573
:10194000019446218020039AFFF774FD0398FEF767
:10195000E9FC1C4A1C4BFEF71FFCFEF7F7FC1B4F73
:101960000024039028202646002546437836282266
:1019700028463146504313460097FFF7E2FD6D1CA1
:10198000EDB2062DF3D3641CE4B2052CEAD38EE746
:10199000FFFF0000D6D0BEB0D4B0B5E7D7D300006B
:1019A0004C43445F573A00004C43445F483A0000C0
:1019B000496E637265617365696E67204E756E3A34
:1019C00000000000295C8FC2F528BC3FE419000824
:1019D0000246012000E050430B46491EC9B2002BCD
:1019E000F9D17047FFFFFFFFFFFFFFFFFFFFFFFF82
:1019F000FFFFFFFFFFFFFFFFFFFFFFFFFFFFFFFFF7
:101A0000FFFFF7BEFFFFFFDEC6388C926B8E6B6E5A
:101A10007C10AD96E73CFFFFFFFFFFFFFFFFFFFFDE
:101A2000FFFFFFFFFFFFFFFFFFFFFFFFFFFFFFFFC6
:101A3000FFFFFFFFFFFFFFFFFFFFFFFFFFFFFFFFB6
:101A4000FFFFFFFFFFFFFFFFFFFFFFFFFFFFFFFFA6
:101A5000FFFFEF5D9D15634F426C320A29881946DE
:101A60001925214531E86B8EC638FFFFFFFFFFFFC8
:101A7000FFFFFFFFFFFFFFFFFFFFFFFFFFFFFFFF76
:101A8000FFFFFFFFFFFFFFFFFFFFFFFFFFFFFFFF66
:101A9000FFFFFFFFFFFFFFFFFFFFFFFFFFFFFFFF56
:101AA000A53653104B1053514B0F3A6C31E9216757
:101AB000192510E408A30062088352CBD69AFFFFD1
:101AC000FFFFFFFFFFFFFFFFFFFFFFFFFFFFFFFF26
:101AD000FFFFFFFFFFFFFFFFFFFFFFFFFFFFFFFF16
:101AE000FFFFFFFFFFFFFFFFFFFFFFFFE73C63700C
:101AF00063B37CB863F54311324D29EA2188192676
:101B0000190519051104110410E4008308A38C724F
:101B1000FFFFFFFFFFFFFFFFFFFFFFFFFFFFFFFFD5
:101B2000FFFFFFFFFFFFFFFFFFFFFFFFFFFFFFFFC5
:101B3000FFFFFFFFFFFFFFFFFFFFDEDB3A4B42F03F
:101B40006C354B5432B12A2E21EB21A919671905A6
:101B500011041104110411041104190510E40042C8
:101B600073AFFFFFFFFFFFFFFFFFFFFFFFFFFFFF61
:101B7000FFFFFFFFFFFFFFFFFFFFFFFFFFFFFFFF75
:101B8000FFFFFFFFFFFFFFFFEF5D3209324C4B10FD
:101B9000328F2A4F2A2E19CC198921891947190504
:101BA0001104110410C410C411041104110410E430
:101BB00000428431FFFFFFFFFFFFFFFFFFFFFFFF3A
:101BC000FFFFFFFFFFFFFFFFFFFFFFFFFFFFFFFF25
:101BD000FFFFFFFFFFFFFFFF52EC1947324C2A0BBC
:101BE00021EC21EC220C5B914AEE11061926190416
:101BF00010E410E429A7216608A3190511041104B3
:101C000010E40082BDF7FFFFFFFFFFFFFFFFFFFFB4
:101C1000FFFFFFFFFFFFFFFFFFFFFFFFFFFFFFFFD4
:101C2000FFFFFFFFFFFFA535088321882188218959
:101C300021AA218A426B8C71FFFF8C7208831104E8
:101C400008C44229DEFBEF5D5AEC0883110411043D
:101C50001104088331E8FFDFFFFFFFFFFFFFFFFFF5
:101C6000FFFFFFFFFFFFFFFFFFFFFFFFFFFFFFFF84
:101C7000FFFFFFFFF7BE31C710C41925192619470A
:101C8000194729A8528A4A28AD55FFFF31E808A311
:101C900019056B4D6B4DFFFFEF7D214510C41104FD
:101CA000110411040062AD76FFFFFFFFFFFFFFFF8D
:101CB000FFFFFFFFFFFFFFFFFFFFFFFFFFFFFFFF34
:101CC000FFFFFFFFB5960062110419041105190505
:101CD00008C44A8BB5B6EF5DBDF7FFFF6B8E00629F
:101CE00042295AAA4208FFFFFFFF52CC0883110481
:101CF0001104110408A352ADFFFFFFFFFFFFFFFF18
:101D0000FFFFFFFFFFFFFFFFFFFFE71CFFFFFFFFDE
:101D1000FFFFFFFF634E006211041104110410E481
:101D20000062638EFFFFFFFFFFFFFFFF73CF000125
:101D30009CF3632CB596FFFFFFFF5B2D008311041E
:101D40001104110410E42167EF3DFFFFFFFFFFFFC7
:101D5000FFFFFFFFBDF8B5B7EF9E52CB94B3FFFF77
:101D6000FFFFFFDF31E808A311041104110411047F
:101D700008A34249F7FFF7FFFFFFFFFF4A6A000190
:101D80008472FFFFFFFFF7FFEFDF3A0908A311049A
:101D90001104110411041105BE18FFFFFFFFFFFF1E
:101DA000FFFFFFFF7BF0006231E831C70041A5353E
:101DB000FFFFEF5D214610C411041104110411044A
:101DC00010E408A39D76F7FFFFFFADB708A308A3B3
:101DD00031C7E79EF7FFF7FFA57608A310E41104CB
:101DE0001104110411051105A535FFFFFFFFFFFFC9
:101DF000FFFFFFFFDEDB29A7008310C410C410C45F
:101E0000E71CEF9E110510E41104110411041104E4
:101E1000190408C410E56BD16BD108C5006408A58E
:101E20000043322B9D7784B3192510C4110411048B
:101E300011041104192509269D35FFFFFFFFFFFF3F
:101E4000FFFFFFFFFFFF73AF006219041905008257
:101E50005B0D9B8E1062110511041104190410E42E
:101E60000085110539C45A817B409C22AC43A403F0
:101E70009B837282498218C200A400C510E4190431
:101E800011041905194711675AECFFBEFFFFFFFF48
:101E9000FFFFFFFFFFDFDEDB10C410E411041105BC
:101EA00018A4C001888300E41905190408C5214459
:101EB0008343D523FE42FEE4FF27FF07FEA4FE6412
:101EC000FE03FDA3FCE2EC42B383622410E508C4E8
:101ED0001904192619A821879000BCD3FFFFFFFF22
:101EE000FFFFFFFFFFDFFFFF7C1000421905110518
:101EF0002883D001F84448A300E408C55A44ED0201
:101F0000FDE2FE02FE66FF74FFB8FF73F6E7F6A679
:101F1000F645F5A4FCC3FC62FCC2FCC2CBE349C499
:101F200011061988018790A4F8019AECFFFFFFFFC2
:101F3000FFFFFFFFFFFFFFFFF7BE31E8008309054A
:101F40004082C001F823F08548A300A45A44FD0252
:101F5000CC23DCC2FE04FE28F648F646F624F5E45F
:101F6000FD64FCE3FC62FCC2E402DC02FCE27AA455
:101F70000148016778C4F824F802B084E77DFFFFC8
:101F8000FFFFFFFFFFFFFFFFFFFFDEDB192500A3C1
:101F900038C4E002D822F844F8A678A400632143AC
:101FA000728339839B82F521FD61FD22FCE2FCA254
:101FB000FC42FC42FC42AB22418392C35204012604
:101FC000192598A4F844F823F802D0A4EF9EFFFF47
:101FD000FFFFFFFFFFFFFFFFFFFFFFFFD69A2987ED
:101FE00000A5B843F822E023F865F8E8C90748835C
:101FF000004200A3008429637AA2B362CBA2D36219
:10200000BB028A82398300A400E500E508E560C4CC
:10201000D864F844F824F823F8028883C6DBFFFF6D
:10202000FFFFFFFFFFFFFFFFFFFFFFFFFFFFE73D9A
:102030005B503108E823F843F044F865F909F9AB3F
:10204000D189890648A3184200020042006100823B
:1020500000620062008320A350C488A5D885F8657B
:10206000F844F844F823F823D003108229C7EF5D21
:10207000FFFFFFFFFFFFFFFFFFFFFFFFFFFFFFFF70
:10208000FFFF326C38A5D802F823F865F866F8A788
:10209000F94AFA0CFA4DEA4CD20BB9A9B168A94732
:1020A000B127B907D107E8E7F8C7F8A7F865F865D9
:1020B000F844F823F803D00228A3090508C45AEC11
:1020C000FFFFFFFFFFFFFFFFFFFFFFFFFFFFFFFF20
:1020D000DEFB190500C441A7C0E6F803F886F8A79F
:1020E000F887F886F8C7F929F98AF9ABF9ABF98BC3
:1020F000F96AF929F908F8C7F8A6F886F865F864C6
:10210000F823F002B106292500E410E41925192569
:102110009D14FFFFFFFFFFFFFFFFFFFFFFFFFFFF1C
:10212000AD96006208829535CEBAA28BD044F825D0
:10213000F887F8A7F8C7F8A7F887F886F886F8862A
:10214000F887F8A7F8A7F8A6F885F865F864F024EA
:10215000B864930DB6BB63CF0883110410E4216605
:102160003A49EF5DFFFFFFFFFFFFFFFFFFFFFFFFAC
:1021700094D3004210E4CEBBFFFFE7BEB576AACCF5
:10218000C107E045F845F846F866F886F886F8860F
:10219000F886F865F845F865E865D044A8438801F5
:1021A0009082D73CEFFF955508831104110419055F
:1021B000194694B3FFFFFFFFFFFFFFFFFFFFFFFF85
:1021C00094B300412186DF5DFFFFFFFFFFFFE7DFE4
:1021D000C67AB4D3B34EC22AD168E0E6E8A6E8A531
:1021E000E8A5D8E6C988A906A822A802A000C800C8
:1021F000D800E5F7E7FFADF810C410E4110410E4CF
:1022000011054A8BFFFFFFFFFFFFFFFFFFFFFFFFEF
:10221000A555004129A7DF5DF7FFFFFFFFFFFFFF87
:10222000FFFFFFFFEFFFDF7DCEDBCE59CDF8CDD72F
:10223000C5F7CE79BEFBA2ABF003F845D042E84328
:10224000F000D472DFFFAE3910E410E4110410E4A2
:1022500011052987FFFFFFFFFFFFFFFFFFFFFFFFC4
:10226000CE5908832146D71CF7FFFFFFFFFFFFFF72
:10227000FFFFFFFFFFFFFFFFFFFFFFFFFFFFFFFF6E
:10228000FFFFFFFFEFFFBA8BF804F845E062F04470
:10229000F800DB8EDFFFA5F810C410E410E4110491
:1022A00010E41925FFFFFFFFFFFFFFFFFFFFFFFF08
:1022B000F7BE29870883B639F7FFF7DFFFFFFFFF77
:1022C000FFFFFFFFFFFFFFFFFFFFFFFFFFFFFFFF1E
:1022D000FFFFFFFFE7BEBA4AF803F845F864F84489
:1022E000F800E36ED7FF8CF40883110410E410E4C7
:1022F00010E41905FFFFFFFFFFFFFFFFFFFFFFFFD8
:10230000FFFF73EF00008472EFFFEFBEFFDFFFFF00
:10231000FFFFFFFFFFFFFFFFFFFFFFFFFFFFFFFFCD
:10232000FFFFFFFFE7DFBA8BF803F845F845F82316
:10233000F800D4D3D7FF5B4E00213A29A555088376
:1023400010C41925FFFFFFFFFFFFFFFFFFFFFFFF87
:10235000FFFFDEFB08A331E8DF9EE79EEFBFFFFF34
:10236000FFFFFFFFFFFFFFFFFFFFFFFFFFFFFFFF7D
:10237000FFFFFFFFF7FFBC51E002F803F003E0436B
:10238000C2ECCF7EBEFC2146002194D3FFFF8451D6
:1023900000002987FFFFFFFFFFFFFFFFFFFFFFFF99
:1023A000FFFFFFFF845100008CF4EFFFE79EEFBFBB
:1023B000FFDFFFFFFFFFFFFFFFFFFFFFFFFFFFFF4D
:1023C000FFFFFFFFFFFFDF3DBD55BC52BC72B5B73D
:1023D000C75DDFFF6BF000003A09F7BFFFFFFFFFAB
:1023E0009D14A555FFFFFFFFFFFFFFFFFFFFFFFF4E
:1023F000FFFFFFFFFFFF4AAC08A4BEBBE7DFE77E9D
:10240000EFBEF7DFFFDFFFFFFFFFFFFFFFFFFFFF75
:10241000FFFFFFFFFFDFF7DFEFFFDFDFD7BFD79E55
:10242000DFDFA5D808831126D6DBFFFFFFFFFFFF04
:10243000FFFFFFFFFFFFFFFFFFFFFFFFFFFFFFFFAC
:10244000FFFFFFFFEE79DC8B312121A9CF3DDFBFFC
:10245000DF7EE79EEFBEEFBFF7DFF7DFF7DFF7DFE7
:10246000F7DFEFBFEFBEE79EDF7ED75ED75EDFDF31
:10247000B69A19260842A3EDFFBFFFFFFFFFFFFF3B
:10248000FFFFFFFFFFFFFFFFFFFFFFFFFFFFFFFF5C
:10249000FFFFDD74DBC0FE00EE4242022189B67B05
:1024A000DFDFD77EDF7EDF7EE79EE79EE79EE79E4B
:1024B000E79EDF7EDF7ED75DD75DDF9EE7FFA5F875
:1024C000110718E3C502FD60D3E6EEDBFFFFFFFF57
:1024D000FFFFFFFFFFFFFFFFFFFFFFFFFFFFFFFF0C
:1024E000F79EBA84FCC1FE42FE82FEA28381214592
:1024F0007474C75EDFDFD77ED75ED75DD75ED75EE9
:10250000D75DD75DD75EDF9EE7FFC73D63F10884E7
:102510005242E626FF29FE86F3E0C36AFFFFFFFF73
:10252000FFFFFFFFFFFFFFFFFFFFFFFFFFFFFFFFBB
:10253000DE18D2C1FDA2FE22FE42FE42FE62D4E2BD
:102540006A4142497453A63BC73ED7BFD7BFD7BFE6
:10255000DFBFD7BFC73EA61A63F229A74182B422C4
:10256000FE62FE83FEAAFF0FFD67BA63EF3CFFFF2A
:10257000FFFFFFFFFFFFFFFFFFFFFFFFFFFFFFFF6B
:10258000E69AD280FD21FDC2F5E2F5C2F582FD8218
:10259000FD62DC619B216A846AE9632C63AF74117C
:1025A000636E632C5A8952047A81CBC2FCE2FD62CD
:1025B000FD82FDC2FDC2FDE4FD24CA62E71CFFFFEF
:1025C000FFFFFFFFFFFFFFFFFFFFFFFFFFFFFFFF1B
:1025D000FFFFCCB1D281F3C0FCC1FD02FD02FCE2E1
:1025E000FCC2FCC2FC81FB80C9C081A4AD35CE59C0
:1025F0009C718121DA00FBA1FC82FCA2FC82FCA27E
:10260000FD02FD22FCE2FC00DA60CC90FFFFFFFF40
:10261000FFFFFFFFFFFFFFFFFFFFFFFFFFFFFFFFCA
:10262000FFFFFFFFDE59C40DCB06D2E4DB03DB0363
:10263000DAE3D2C3C2A4B309BCD2F79EFFFFFFFF07
:10264000FFFFE6FBB40EBAA6D283E2E3EB02EB2275
:10265000E322DB03D2E4C36AD5B6FFFFFFFFFFFF2F
:10266000FFFFFFFF0000000000000000000000006E
:102670000000000000000008080808080808000022
:102680001818000000486C24120000000000000030
:10269000000000000000002424247F1212127F1288
:1026A000121200000000081C2A2A0A0C1828282AE6
:1026B0002A1C080800000022251515152A58545414
:1026C000542200000000000C1212120A7625291173
:1026D000916E0000000606040300000000000000E8
:1026E000000000000040201010080808080808102A
:1026F00010204000000204080810101010101008EC
:10270000080402000000000008086B1C1C6B08088D
:102710000000000000000000080808087F08080802
:1027200008000000000000000000000000000000A1
:10273000060604030000000000000000FE00000088
:102740000000000000000000000000000000000089
:1027500006060000000080404020201010080804F9
:102760000402020000000018244242424242424257
:1027700024180000000000080E08080808080808CF
:10278000083E00000000003C4242422020100804A5
:10279000427E00000000003C42422018204040429F
:1027A000221C0000000000203028242422227E2049
:1027B000207800000000007E0202021A26404042FB
:1027C000221C0000000000382402021A2642424265
:1027D000241800000000007E2222101008080808BB
:1027E000080800000000003C4242422418244242F3
:1027F000423C00000000001824424242645840401D
:10280000241C000000000000000018180000000058
:102810001818000000000000000000080000000080
:1028200000080804000000402010080402040810FA
:10283000204000000000000000007F0000007F003A
:1028400000000000000000020408102040201008D2
:10285000040200000000003C4242464020101000EC
:10286000181800000000001C225A555555552D42DD
:10287000221C00000000000808181414243C224206
:1028800042E700000000001F2222221E2242424294
:10289000221F00000000007C4242010101010142B0
:1028A000221C00000000001F2242424242424242DB
:1028B000221F00000000003F4212121E12120242AC
:1028C000423F00000000003F4212121E121202029C
:1028D000020700000000003C2222010101712122B8
:1028E000221C0000000000E7424242427E42424277
:1028F00042E700000000003E080808080808080831
:10290000083E00000000007C101010101010101085
:102910001010110F0000007722120A0E0A12122264
:1029200022770000000000070202020202020202F7
:10293000427F000000000077363636362A2A2A2ADF
:102940002A6B0000000000E346464A4A5252526297
:10295000624700000000001C2241414141414141C9
:10296000221C00000000003F424242423E0202029E
:10297000020700000000001C2241414141414D532B
:10298000321C60000000003F4242423E12122222EE
:1029900042C700000000007C42420204182040426E
:1029A000423E00000000007F4908080808080808A7
:1029B000081C0000000000E74242424242424242FC
:1029C000423C0000000000E7424222242414141874
:1029D000080800000000006B494949495555362256
:1029E00022220000000000E74224241818182424A2
:1029F00042E70000000000772222141408080808AB
:102A0000081C00000000007E212010100804044271
:102A1000423F00000078080808080808080808086D
:102A200008087800000002020404080808101020BA
:102A300020204040001E1010101010101010101018
:102A400010101E00003844000000000000000000CC
:102A50000000000000000000000000000000000076
:102A6000000000FF00060800000000000000000059
:102A700000000000000000000000003C42784442DA
:102A800042FC0000000000030202021A26424242F9
:102A9000261A000000000000000000384402020274
:102AA0004438000000000060404040784442424208
:102AB00064D80000000000000000003C427E0202DA
:102AC000423C0000000000F08808087E0808080862
:102AD000083E0000000000000000007C22221C02D2
:102AE0003C42423C000000030202023A464242429B
:102AF00042E700000000000C0C00000E0808080867
:102B0000083E000000000030300000382020202067
:102B10002020221E0000000302020272120A161276
:102B2000227700000000000E0808080808080808BE
:102B3000083E0000000000000000007F9292929288
:102B400092B70000000000000000003B46424242F5
:102B500042E70000000000000000003C4242424208
:102B6000423C0000000000000000001B26424242E0
:102B7000221E02070000000000000078444242428A
:102B8000447840E000000000000000774C0404049A
:102B9000041F0000000000000000007C42023C40D6
:102BA000423E0000000000000008083E0808080837
:102BB0000830000000000000000000634242424272
:102BC00062DC000000000000000000E74224241442
:102BD0000808000000000000000000EB49495555BE
:102BE00022220000000000000000007624181818BF
:102BF000246E000000000000000000E742242414BE
:102C000018080807000000000000007E22100808D5
:102C1000447E000000C02020202020102020202002
:102C20002020C000101010101010101010101010E4
:102C300010101010000608080808081008080808F6
:102C4000080806000C32C20000000000000000006E
:102C50000000000000000000000000000000000074
:102C60000000000000000000000000000000000064
:102C70000000000000000000000000000000000054
:102C80000000000000000000000000000000000044
:102C90000000000000000000000000000000C00173
:102CA000C001C001C001C001C001C001800080009E
:102CB0008000800080008000800000000000000094
:102CC00000008001C003C00380010000000000007C
:102CD00000000000000000000000E01CE01CF01EEE
:102CE000700E38071803080184000000000000007F
:102CF00000000000000000000000000000000000D4
:102D000000000000000000000000000000000000C3
:102D100000000000000000000000000000000000B3
:102D200020102010201020102010FE7FFE7F1008A1
:102D3000100810081008100810081008FE7FFE7F09
:102D40000804080408040804080400000000000047
:102D50000000000000000000000000000001000171
:102D6000C00760191031183118391839380170014D
:102D7000E001C0038007000F001D003900311C3145
:102D80001C310C310C11180DE0070001000100018D
:102D90000000000000000000000000000000000033
:102DA0001C1036186308630C630463046302630237
:102DB0006301361D9C37802280634063406320633B
:102DC0002063306310221836081C00000000000049
:102DD00000000000000000000000000000000000F3
:102DE000F00098018C018C018C018C018C00CC00CE
:102DF0007800183E1C083608320863046304C304D4
:102E0000C303834306438E26781C000000000000A5
:102E1000000000000000000000001C003C003C001E
:102E20003000300010000C00060000000000000020
:102E30000000000000000000000000000000000092
:102E40000000000000000000000000000000000082
:102E50000000000000000000000000400020001002
:102E60000008000C000400060003000300038001BA
:102E700080018001800180018001800180010003C8
:102E80000003000300060006000C000800100020EC
:102E900000400000000000000000020004000800E4
:102EA0001000300020006000C000C000C0008001A1
:102EB0008001800180018001800180018001C000CB
:102EC000C000C00060006000300010000800040076
:102ED00002000000000000000000000000000000F0
:102EE0000000000000018003800300011C713C7998
:102EF000783DC0070001C007783D3C791C71000196
:102F0000800380038001000000000000000000003A
:102F100000000000000000000000000000000000B1
:102F2000000000000000000100010001000100019C
:102F300000010001FC7F000100010001000100010F
:102F4000000100010000000000000000000000007F
:102F50000000000000000000000000000000000071
:102F60000000000000000000000000000000000061
:102F70000000000000000000000000000000000051
:102F8000000000001C003C003C003000300010003D
:102F90000C0006000000000000000000000000001F
:102FA0000000000000000000000000000000000021
:102FB00000000000FE7F0000000000000000000094
:102FC0000000000000000000000000000000000001
:102FD00000000000000000000000000000000000F1
:102FE00000000000000000000000000000000000E1
:102FF00000000000000000000000000000000000D1
:10300000000018003C003C00180000000000000018
:1030100000000000000000000000004000600020F0
:103020000030001000180008000C00040006000228
:103030000003000180018000C0004000600020000B
:1030400030001000180008000C0004000600020008
:103050000000000000000000000000000000000070
:10306000C007600C30181830183018200C600C6045
:103070000C600C600C600C600C600C600C60182024
:10308000183018303018600CC00700000000000035
:103090000000000000000000000000000000000030
:1030A00000018001F8018001800180018001800120
:1030B0008001800180018001800180018001800108
:1030C000800180018001C003F81F000000000000A3
:1030D00000000000000000000000000000000000F0
:1030E000E007101C0818043004300C300C3000309D
:1030F00000180008000400020001800040002020A9
:10310000102008200430FC1FFC1F000000000000FD
:1031100000000000000000000000000000000000AF
:10312000E003180E0C0C0C180C180C180018000CEE
:103130000006C003000E00180010003000300C30F4
:103140000C300C100C18180CE003000000000000FC
:10315000000000000000000000000000000000006F
:10316000000C000E000E000F800E800E400E600E50
:10317000200E100E100E080E040E040EFE7F000E20
:10318000000E000E000E000E000EC07F00000000BA
:10319000000000000000000000000000000000002F
:1031A000F03FF03F10001000100008000800C807B2
:1031B000280C1818081000300030003000300C3097
:1031C0000C3004180418080CF00300000000000084
:1031D00000000000000000000000000000000000EF
:1031E000800FC010203010301800180008000C00AC
:1031F0008C0F6C183C301C600C600C600C600C6018
:103200001860182030306018C0070000000000006F
:1032100000000000000000000000000000000000AE
:10322000F83FF83F1C100C080408040400040002D6
:103230000002000100010001800080008000C00049
:10324000C000C000C000C000C000000000000000BE
:10325000000000000000000000000000000000006E
:10326000E007300C18180C300C300C301C303818BB
:103270007008E007B007180E0C1C06380630063040
:10328000063006300C18180CE003000000000000A7
:10329000000000000000000000000000000000002E
:1032A000E00318040C080C1806100630063006302F
:1032B000063006380C3C1836F03100300018001883
:1032C00000180C0C0C060C03F001000000000000BC
:1032D00000000000000000000000000000000000EE
:1032E000000000000000000000000000000080015D
:1032F000C003C003800100000000000000000000C7
:1033000000008001C003C003800100000000000035
:1033100000000000000000000000000000000000AD
:103320000000000000000000000000000000C000DD
:10333000C0000000000000000000000000000000CD
:10334000000000000000C000C000800080004000BD
:10335000400000000000000000000000000000200D
:10336000001000080004000600038001C000600097
:10337000300018000C00180030006000C000800110
:1033800000030006000400080010002000000000F8
:10339000000000000000000000000000000000002D
:1033A0000000000000000000000000000000FE7FA0
:1033B00000000000000000000000FE7F0000000090
:1033C00000000000000000000000000000000000FD
:1033D00000000000000000000000000000000400E9
:1033E0000800100020006000C000800100030006FB
:1033F000000C001800300018000C000600038001CB
:10340000C000600020001000080004000000000060
:103410000000000000000000000000000000C007E5
:103420003018083008600C601C601C601C600030A4
:10343000001C000600018000800080008000000069
:1034400000008001C003C0038001000000000000F4
:10345000000000000000000000000000000000006C
:10346000C0076018103018200C2F8C4D864CC64CAD
:10347000C64C664C66446644662666266615CC1CB9
:103480000C40082018303018C00700000000000071
:10349000000000000000000000000000000000012B
:1034A000C001C001C00140016003200320032003CC
:1034B0003006100610061006F80F080C080C080C51
:1034C0000C0C0418041806181F7C000000000000F3
:1034D00000000000000000000000000000000000EC
:1034E000FE07181C18381830183018301830181803
:1034F000180CF80718181830182018601860186091
:103500001860186018301818FE0F00000000000046
:1035100000000000000000000000000000000000AB
:10352000C0276038103018200C400C400400060002
:1035300006000600060006000600060006000C4015
:103540000C400C2018303018C007000000000000AC
:10355000000000000000000000000000000000006B
:10356000FE03180E1818183018301830186018603C
:1035700018601860186018601860186018601830BB
:10358000183018101818180EFE0300000000000074
:10359000000000000000000000000000000000002B
:1035A000FE3F183018201860184018001808180836
:1035B000180CF80F180C1808180818001800180034
:1035C0001840184018201830FE3F0000000000008E
:1035D00000000000000000000000000000000000EB
:1035E000FE7F1870184018C01880180018101810A6
:1035F0001818F81F181818101810180018001800BC
:1036000018001800180018007E00000000000000DC
:1036100000000000000000000000000000000000AA
:10362000C013701C101018100C200C200400060091
:10363000060006000600060006FC063006300C30C8
:103640000C30183018303008C007000000000000AF
:10365000000000000000000000000000000000006A
:103660003F7E0C180C180C180C180C180C180C18A1
:103670000C180C18FC1F0C180C180C180C180C1833
:103680000C180C180C180C183F7E000000000000ED
:10369000000000000000000000000000000000002A
:1036A000F81F80018001800180018001800180017C
:1036B0008001800180018001800180018001800102
:1036C0008001800180018001F81F000000000000DF
:1036D00000000000000000000000000000000000EA
:1036E000E07F000600060006000600060006000651
:1036F000000600060006000600060006000600069A
:103700000006000600060006000600060E060E0370
:103710008E01FC000000000000000000000000001E
:103720007E7C181818081804180618021801980149
:103730009801D801B803380318071806180E180C9A
:10374000181C1818183018307EFC0000000000000B
:103750000000000000000000000000000000000069
:103760007E00180018001800180018001800180033
:103770001800180018001800180018001800180089
:103780001840184018201830FE3F000000000000CC
:103790000000000000000000000000000000000029
:1037A0001FF81C381C381C381C3C34343434343476
:1037B000343674326432643264326431C431C431B8
:1037C000C431C430C43084309FFC000000000000CD
:1037D00000000000000000000000000000000000E9
:1037E0001F7C1C103C103410341074106410E41052
:1037F000C410C41184118413041304170416041E86
:10380000041C041C041C04181F1800000000000005
:1038100000000000000000000000000000000000A8
:10382000C003300C181808100C300C30066006600D
:1038300006600660066006600660066006600C2092
:103840000C3008101818300CC003000000000000F5
:103850000000000000000000000000000000000068
:10386000FE0F18181830186018601860186018607B
:1038700018301818F80F1800180018001800180051
:1038800018001800180018007E000000000000005A
:103890000000000000000000000000000000000028
:1038A000C003300C18180C100C300C200660066099
:1038B0000660066006600660066006600660E461F9
:1038C0002C331C321816300EC007004C007C003818
:1038D00000000000000000000000000000000000E8
:1038E000FE07181C183818301830183018301818FF
:1038F000180CF80798031803180718061806180E6E
:10390000180C180C181C18187E7800000000000015
:1039100000000000000000000000000000000000A7
:10392000E027303818300C200C200C000C00180058
:103930007800E003800F001E003800700060046013
:103940000460086018303818C80F0000000000003C
:103950000000000000000000000000000000000067
:10396000FC3F8C2184618241824180018001800181
:10397000800180018001800180018001800180013F
:103980008001800180018001E0070000000000004C
:103990000000000000000000000000000000000027
:1039A0003F7C0C100C100C100C100C100C100C1098
:1039B0000C100C100C100C100C100C100C100C1027
:1039C0000C100C1008083804E00300000000000090
:1039D00000000000000000000000000000000000E7
:1039E0003EF81820182018203010301030103010F9
:1039F000600860086008E00CC004C004C0048003D4
:103A0000800380038003000100010000000000002B
:103A100000000000000000000000000000000000A6
:103A2000DFF38661862186218C210C218C238C1367
:103A30008C138C134C1358125816580E380E380E1F
:103A4000380E300C100410041004000000000000B8
:103A50000000000000000000000000000000000066
:103A60007E3E180838083004300470026002E0011D
:103A7000C001C001800180034003400720062006EA
:103A8000100C100C081808183E7C00000000000004
:103A90000000000000000000000000000000000026
:103AA0007E7C1C10181018083008300C700460045C
:103AB0006002C002C002C00180018001800180015B
:103AC0008001800180018001E0070000000000000B
:103AD00000000000000000000000000000000000E6
:103AE000F83F18180818040C040E0006000700031D
:103AF00080038001C001C000E00060007000300061
:103B0000382018201C100C18FE1F000000000000B8
:103B100000000000000000000000C03F4000400026
:103B20004000400040004000400040004000400095
:103B30004000400040004000400040004000400085
:103B40004000400040004000400040004000C03FB6
:103B5000000000000000000000000000000008005D
:103B600018001800100030002000600060004000C5
:103B7000C0008000800180010001000300020006F7
:103B800000060004000C00080018001800100030A7
:103B900000200000000000000000FC030002000202
:103BA0000002000200020002000200020002000205
:103BB00000020002000200020002000200020002F5
:103BC0000002000200020002000200020002FC03E8
:103BD000000000000000000000008007C006200870
:103BE00010100000000000000000000000000000B5
:103BF00000000000000000000000000000000000C5
:103C000000000000000000000000000000000000B4
:103C100000000000000000000000000000000000A4
:103C20000000000000000000000000000000000094
:103C30000000000000000000000000000000000084
:103C40000000000000000000000000000000000074
:103C50000000FFFF0000000000007800C00000012D
:103C60000000000000000000000000000000000054
:103C70000000000000000000000000000000000044
:103C80000000000000000000000000000000000034
:103C90000000000000000000000000000000000024
:103CA0000000000000000000000000000000F00321
:103CB00018060C0C0C0C000C800F700C1C0C0C0C5F
:103CC000060C060C064C0C4FF838000000000000F3
:103CD00000000000000000000000000000001000D4
:103CE0001E00180018001800180018001800180FFF
:103CF000D81838303860186018601860186018607C
:103D00001860182038307818C8070000000000003C
:103D100000000000000000000000000000000000A3
:103D20000000000000000000000000000000C007CC
:103D3000700C181818180C180C000C000C000C0053
:103D40000C20182018103008C007000000000000E8
:103D50000000000000000000000000000000001053
:103D6000001E001800180018001800180018E01BAA
:103D7000301C181818180C180C180C180C180C18E3
:103D80000C180818181C307AE00900000000000028
:103D90000000000000000000000000000000000023
:103DA0000000000000000000000000000000C0074C
:103DB000300C181808100C300C30FC3F0C000C00B4
:103DC0000C00182018107018C00700000000000038
:103DD00000000000000000000000000000000000E3
:103DE000003E80C380C0C0C0C000C000C000FC1F37
:103DF000C000C000C000C000C000C000C000C000C3
:103E0000C000C000C000C000F80F000000000000AB
:103E100000000000000000000000000000000000A2
:103E20000000000000000000000000000000C0775B
:103E3000306C10181818181818181018300CF007D3
:103E400018001800F00FF03F08700C600C600C6058
:103E50003838E00F000000000000000000001000F3
:103E60001E00180018001800180018001800980FFD
:103E7000D81838301830183018301830183018303A
:103E800018301830183018307EFC00000000000098
:103E90000000000000000000000000000000000022
:103EA0008003800380030000000000000001F8018F
:103EB00080018001800180018001800180018001FA
:103EC0008001800180018001F81F000000000000D7
:103ED00000000000000000000000000000000000E2
:103EE0000038003800380000000000000010801F7B
:103EF0000018001800180018001800180018001802
:103F00000018001800180018001800180018180CE5
:103F10001806F00300000000000000000000100080
:103F20001E00180018001800180018001800183E8D
:103F3000180C1806180318019801D801380318073F
:103F40001806180C181C18187E7C000000000000D1
:103F50000000000000000000000000000000000160
:103F6000F8018001800180018001800180018001D1
:103F70008001800180018001800180018001800139
:103F80008001800180018001F81F00000000000016
:103F90000000000000000000000000000000000021
:103FA0000000000000000000000000000800EE1CFF
:103FB0009C338C318C318C318C318C318C318C3107
:103FC0008C318C318C318C31DE7B000000000000A4
:103FD00000000000000000000000000000000000E1
:103FE00000000000000000000000000010001E0F94
:103FF000D8183830183018301830183018301830B9
:1040000018301830183018307EFC00000000000016
:1040100000000000000000000000000000000000A0
:104020000000000000000000000000000000C007C9
:10403000701C103018300C600C600C600C600C6050
:104040000C60183018303018C00700000000000065
:104050000000000000000000000000000000000060
:1040600000000000000000000000000010009E0F93
:1040700058183830182018601860186018601860D8
:104080001860183038307818980718001800180091
:1040900018007E000000000000000000000000008A
:1040A0000000000000000000000000000000C0232D
:1040B000303C183818300C300C300C300C300C30D0
:1040C0000C3008301838303CE0330030003000301D
:1040D000003000FC000000000000000000000000B4
:1040E00000000000000000000000000060007E3CB6
:1040F00060666061E000E0006000600060006000F9
:104100006000600060006000FE070000000000002A
:10411000000000000000000000000000000000009F
:104120000000000000000000000000000000E02788
:1041300030381830182018007000E003800F001C81
:10414000043004300C301C18EC0F0000000000009C
:10415000000000000000000000000000000000005F
:1041600000000000800080008000C000E000FC1F14
:10417000C000C000C000C000C000C000C000C0003F
:10418000C000C020C0208011000F0000000000000F
:10419000000000000000000000000000000000001F
:1041A00000000000000000000000000010201E3C85
:1041B00018301830183018301830183018301830BF
:1041C00018301830183830F4E013000000000000F8
:1041D00000000000000000000000000000000000DF
:1041E00000000000000000000000000000007E3C15
:1041F0001818180838083004300470026002600291
:10420000E001C001C001C00080000000000000000B
:10421000000000000000000000000000000000009E
:104220000000000000000000000000000000DFF7B8
:104230008E630C238C238C239813981358165816CE
:10424000700E700E700E20042004000000000000AC
:10425000000000000000000000000000000000005E
:104260000000000000000000000000000000FC3E14
:1042700070087004E004C002C0018003800340079E
:104280006006200C100C18183E7E00000000000094
:10429000000000000000000000000000000000001E
:1042A00000000000000000000000000000007E7C14
:1042B0001818180830083008300460046004C00280
:1042C000C002C00280018001800180008000800067
:1042D0004C003C0000000000000000000000000056
:1042E0000000000000000000000000000000FC1FB3
:1042F0000C0C040E0406000380038001C000E000E3
:104300007020302038301C18FC1F00000000000016
:104310000000000000000000000000300008000461
:10432000000400040004000400040004000400046D
:1043300000040002800100020004000400040004E4
:104340000004000400040004000400040004000849
:104350000030000000010001000100010001000127
:104360000001000100010001000100010001000145
:104370000001000100010001000100010001000135
:104380000001000100010001000100010001000125
:10439000000100010000000000000C0010002000DF
:1043A000200020002000200020002000200020000D
:1043B000200040008001400020002000200020005C
:1043C00020002000200020002000200020001000FD
:1043D0000C00000000003800C4008640026100228A
:1043E000001C0000000000000000000000000000B1
:1043F00000000000000000000000000000000000BD
:1044000000000000000000000000000000000000AC
:1044100000000000D6D08000800080008000FC1FDB
:1044200084108410841084108410FC1F8410800079
:10443000800080008000BEB0F80F0808F80F080860
:10444000F80F8000FF7F0000F80F08080808F80F39
:1044500080008410A2204000D4B00000FE3F022063
:10446000F22702200220FA2F2221222122211229C2
:1044700012290A2E0220FE3F0220B5E780008000AC
:104480008000FC1F841084108410FC1F8410841092
:104490008410FC1F845080408040007FD7D30000F0
:1044A000FE1F00080004000280018000FF7F8000E2
:1044B00080008000800080008000A0004000D6D0F6
:1044C00000000000000000180000080000080000C4
:1044D0000800080818F8FF1F180818180818180806
:1044E00018180818180818180818F8FF1F080808DE
:1044F0000008000008000008000008000018000084
:104500001800001800000000BEB00000000000000D
:10451000400006C0FF07400006C0FF07400006C07D
:10452000FF07400802003000FEFF3F000000C0FF10
:1045300007C00002C00002C00002C0FF03801000DC
:1045400080110160100E3010180C1E30001C00008D
:104550000000D4B0000000000000080030F8FF1F89
:1045600008001008C010083F1008001008001008CC
:104570000013C8FF10082210082210082210082279
:104580001008211208211488601648C01328001052
:10459000080010F8FF1F080010000000B5E7000039
:1045A00000000000001800000800000800000800DB
:1045B000F0FF0F100804100804100804100804F09D
:1045C000FF07100804100804100804100804F0FF86
:1045D000071008000008100008100008200018301C
:1045E00000F01F000000D7D3000000000000000012
:1045F00004F0FF0F00000600000100C000002800CA
:10460000001800001800001830FEFF7F001800009E
:10461000180000180000180000180000180000180A
:1046200000001800001800001F00000C000000002F
:10463000D6D00000000000000000008000000080D4
:104640000100008001000080010000800100008066
:1046500001001080010CF0FFFF0F3080010430805A
:104660000104308001043080010430800104308076
:1046700001043080010430800104F0FFFF07308026
:1046800001043080010400800100008001000080EE
:104690000100008001000080010000800100008016
:1046A0000100008001000080010000800000000087
:1046B0000000BEB00000000000000000000000008C
:1046C0000001800100FFFF01000380010003800161
:1046D00000FFFF01000380010003800100FFFF01D4
:1046E00000818100000003000000031CFCFFFF3F6D
:1046F000000040000003C00100FFFF010003C000F4
:104700000003C0000003C00000FFFF0000014100E3
:1047100000040100000E7100000781018001010703
:104720006000010E1898011C04E0011800C0000090
:1047300000000000D4B000000000000000000000F5
:104740000008F0FFFF1F3000000C3000000C3000AC
:10475000100C30FE3F0C3004000C3000000C300018
:10476000000C3000000C3000C00CF0FFFF0D3030AA
:10477000060E3030060C3010060C3010060C3010CF
:10478000060C3018860C3018860C3008060D300CDC
:10479000860D3006EE0F3002FC0D3001000CF000EB
:1047A000000C3000000CF0FFFF0F3000000C100078
:1047B000000400000000B5E7000000000000000059
:1047C00000C0000000C0010000C0000000C00000E8
:1047D00000C0000000C00000E0FFFF0360C0000355
:1047E00060C0000360C0000360C0000360C000033D
:1047F00060C00003E0FFFF0360C0000360C000036F
:1048000060C0000360C0000360C00003E0FFFF035E
:1048100060C0000160C0000000C0000800C00010BF
:1048200000C0001000C0001800C001380080FF1F49
:104830000000000000000000D7D3000000000000CE
:1048400000000000000000000003C0FFFF070000A0
:1048500080070000C0000000600000001800000099
:104860000C00008003000080030000800100008035
:1048700001080080011CFCFFFF3F00800100008058
:104880000100008001000080010000800100008024
:104890000100008001000080010000800100008014
:1048A0000100008001000080010000FC010000E028
:1048B00000000040000000000000000000000000B8
:1048C00000000102030406070809030406080C108F
:1048D00018203000F4480008000000200800000004
:1048E00052180008FC4800080800002000040000DE
:0C48F000621800080000000080841E0018
:04000005080000C12E
:00000001FF
