:020000040800F2
:10000000280400206504000861020008630200085B
:1000100000000000000000000000000000000000E0
:10002000000000000000000000000000670200085F
:100030000000000000000000690200086B020008D8
:1000400077040008770400087704000877040008A4
:100050007704000877040008770400087704000894
:100060007704000877040008770400087704000884
:100070007704000877040008770400087704000874
:1000800077040008770400080000000077040008E7
:100090007704000877040008770400087704000854
:1000A0007704000877040008770400087704000844
:1000B000770400080000000077040008000000003A
:1000C0000348854601F048FE00480047D500000877
:1000D000280400201FB5002600F078FF00F0D0F9BA
:1000E00000F06BFA4E48FF234133F02200210090CC
:1000F000084600F07BFB0121C9030920C00601F07E
:1001000090F88CE000202021454A1F23DB0200925A
:100110000191029043A2014600F0ADFD00201021A4
:100120003F4A1F23DB0200920191029040A2282146
:1001300000F052FE10203A491F22D20203230092FF
:1001400001910290F0222821302000F06EFE002064
:100150001021334A1F23DB0200920191029036A244
:100160002821502000F038FE10202D491F22D202F5
:100170000323009201910290FF2241322821802026
:1001800000F053FE00201021254A1F23DB020092BD
:100190000191029028A22821502000F01DFE00208D
:1001A00010211F4A1F23DB0200920191029024A21A
:1001B000462100F011FE102019491F22D20204230B
:1001C00000920191029032464621802000F07CFE90
:1001D000304601F0CDFC1F4A1F4B0191009001F009
:1001E00001FC0391029001F0D7FC0646002514E0C3
:1001F00000240EE019482A4628235A431146783134
:100200001A466243009010461A4600F0AEFE601C8B
:10021000C4B2062CEEDB681CC5B2052DE8DB71E725
:10022000FFFF0000D6D0BEB0D4B0B5E7D7D30000F2
:100230004C43445F573A00004C43445F483A000047
:10024000496E637265617365696E67204E756E3ABB
:1002500000000000295C8FC2F528BC3FEA1D0008A1
:10026000704700BFFEE77047704770470CB500202D
:100270000190009073480068012109040843714906
:10028000086000BF6F4800680121490408400090E1
:100290000198401C01900098002804D10521090212
:1002A00001988842EED1674800680121490408405E
:1002B000002802D00120009001E00020009000986A
:1002C000012839D11120604908605E4840685D49C5
:1002D0004860084640684860084640683F21090475
:1002E000884358494860084640681121090408437A
:1002F00054494860084600680121090608435149ED
:10030000086000BF4F4800680121490608400028E6
:10031000F8D04C484068800880004A494860084648
:100320004068022108434749486000BF454840688B
:100330000C2108400828F9D10CBD10B541480068CF
:10034000012108433F490860084640683F4908408A
:100350003C494860084600683D4908403949086002
:100360000846006801218904884336490860084628
:1003700040683F2109048843324948600846C06A02
:1003800000090001C8620846006BFF215431884310
:100390002C4908630846406B400840004863002031
:1003A0008860FFF763FF10BDF8B500250024002624
:1003B0000027244840680C2108400546002D04D041
:1003C000042D06D0082D2AD107E0224822490860D2
:1003D00029E020482049086025E01A4840680F219C
:1003E0008904084004461748406801210904084070
:1003F0000646A00C841C002E04D118486043164900
:1004000008600BE00F48C06A0007000F471C394620
:10041000104801F093FA60430F49086003E00D486B
:100420000D49086000BF00BF06484068F021084041
:1004300000090B490D5C08480068E840064908605F
:10044000F8BD000000100240002002400CB8FFF888
:10045000FFFFF6FE00127A000000002000093D00B8
:10046000040000200448804704480047FEE7FEE7F8
:10047000FEE7FEE7FEE7FEE73B030008C1000008D9
:100480001CB50121480401F080F90120C00300904F
:100490000321684641710121017100218171694682
:1004A0000920C00600F03EFE0121C9030920C00654
:1004B00000F0B5FE1CBD1CB50121480401F065F932
:1004C0003F20009003216846417101210171002104
:1004D000817169460920C00600F024FE3F210920F1
:1004E000C00600F09CFE1CBD70B50446102109201A
:1004F000C00600F096FE00251CE001210920C00680
:1005000000F08FFE80202040002805D00221092025
:10051000C00600F084FE04E002210920C00600F0BD
:1005200080FE01210920C00600F079FE6006040E5D
:10053000681CC5B2082DE0DB10210920C00600F0C0
:100540006EFE70BD10B504462046FFF7CDFF10BD0E
:1005500010B504462104080EFFF7C6FFE0B2FFF70E
:10056000C3FF10BD10B5044608210920C00600F0E5
:1005700058FE2046FFF7B8FF08210920C00600F00A
:100580004EFE10BDF8B507460C4615461E462A20FD
:10059000FFF7E8FF3846FFF7DBFF2846FFF7D8FFF5
:1005A0002B20FFF7DFFF2046FFF7D2FF3046FFF793
:1005B000CFFF2C20FFF7D6FFF8BD10B5FFF77BFF6C
:1005C00004210920C00600F02CFE642000F039FD53
:1005D00004210920C00600F022FE642000F031FD55
:1005E00020210920C00600F01AFE642000F029FD39
:1005F0001120FFF7B7FF782000F023FDCF20FFF791
:10060000B1FF0020FFF79EFFC120FFF79BFF3020C6
:10061000FFF798FFED20FFF7A5FF6420FFF792FF9B
:100620000320FFF78FFF1220FFF78CFF8120FFF7D9
:1006300089FFE820FFF796FF8520FFF783FF002062
:10064000FFF780FF7920FFF77DFFCB20FFF78AFFC0
:100650003920FFF777FF2C20FFF774FF0020FFF70A
:1006600071FF3420FFF76EFF0220FFF76BFFF720CA
:10067000FFF778FF2020FFF765FFEA20FFF772FF02
:100680000020FFF75FFF0020FFF75CFFC020FFF7AF
:1006900069FF1D20FFF756FFC120FFF763FF1220FF
:1006A000FFF750FFC520FFF75DFF3320FFF74AFF3C
:1006B0003F20FFF747FFC720FFF754FF9220FFF7C7
:1006C00041FF3A20FFF74EFF5520FFF73BFF362052
:1006D000FFF748FF0820FFF735FFB120FFF742FF83
:1006E0000020FFF72FFF1220FFF72CFFB620FFF7A7
:1006F00039FF0A20FFF726FFA220FFF723FF44203F
:10070000FFF730FF0220FFF71DFFF220FFF72AFF5F
:100710000020FFF717FF2620FFF724FF0120FFF737
:1007200011FFE020FFF71EFF0F20FFF70BFF222035
:10073000FFF708FF1C20FFF705FF1B20FFF702FF54
:100740000820FFF7FFFE0F20FFF7FCFE4820FFF711
:10075000F9FEB820FFF7F6FE3420FFF7F3FE052080
:10076000FFF7F0FE0C20FFF7EDFE0920FFF7EAFE91
:100770000F20FFF7E7FE0720FFF7E4FE0020FFF75A
:10078000E1FEE120FFF7EEFE0020FFF7DBFE232075
:10079000FFF7D8FE2420FFF7D5FE0720FFF7D2FE93
:1007A0001020FFF7CFFE0720FFF7CCFE3820FFF721
:1007B000C9FE4720FFF7C6FE4B20FFF7C3FE0A2005
:1007C000FFF7C0FE1320FFF7BDFE0620FFF7BAFEBD
:1007D0003020FFF7B7FE3820FFF7B4FE0F20FFF7F9
:1007E000B1FE2920FFF7BEFE10BD0000FEB5064693
:1007F0000F4614461D466B1E621E39463046FFF7F3
:10080000C1FE01970DE0009605E00898FFF7A0FEF5
:100810000098401C00900098A042F6D30198401C1C
:1008200001900198A842EED3FEBD70B504460D4676
:1008300016462B46224629462046FFF7A3FE3046A1
:10084000FFF786FE70BDFFB587B0002005900490CD
:1008500007990998441A08990A98461A0798029025
:1008600008980190002C01DD012706E0002C01D141
:10087000002702E00027FF436442002E02DD012032
:10088000039008E0002E02D10020039003E0002036
:10089000C04303906642B44201DD254600E0354680
:1008A0000020069020E0109A01990298FFF7BDFF02
:1008B0000598001905900498801904900598A8429D
:1008C00005DD0598401B05900298C0190290049818
:1008D000A84206DD0498401B049003990198401833
:1008E00001900698401C0690691C06988842DAD34D
:1008F0000BB0F0BDFFB581B005460E4617460A9C09
:1009000033463A46314628460094FFF79CFF009450
:100910002A4631462846049BFFF795FF00943A4645
:10092000049B19462846FFF78EFF00943A4631464D
:100930003846049BFFF787FF05B0F0BDFFB581B0D7
:1009400006460F460024039D32E0391B701B049AB3
:10095000FFF76BFF391B7019049AFFF766FF7919CF
:10096000301B049AFFF761FF791B301B049AFFF7D5
:100970005CFF39197019049AFFF757FF791B30197A
:10098000049AFFF752FF79193019049AFFF74DFFC7
:100990003919701B049AFFF748FF641C2046604316
:1009A00029466943411803984043814200DD6D1E8A
:1009B000AC42CADD05B0F0BDFFB585B006460F9C60
:1009C00001962046E117490F0918C91061430291A9
:1009D0000520039000255FE082206843F949095C07
:1009E00007980078814255D182206843F549401824
:1009F00041780798407881424CD106980019431EEF
:100A00003019421E30460699FFF7BCFD00200490C5
:100A10003CE0002733E01098002813D1822068437F
:100A2000E8494018801C0499405C0121B940084005
:100A3000002803D00898FFF78BFD1EE00E98FFF703
:100A400087FD1AE082206843DE494018801C049923
:100A5000405C0121B9400840002804D03046089A83
:100A60000699FFF7E2FE761C0198301AA04204D1E5
:100A7000019E0698401C069003E0781CC7B2082F20
:100A8000C9DB00BF0498401CC0B2049002990498CE
:100A90008842BED300BF6D1C039885429CD309B029
:100AA000F0BDFFB585B006460F9C01962046E117C4
:100AB000490F0918C91061430291052003900025D0
:100AC0005FE04A206843C049095C0798007881428A
:100AD00055D14A206843BC4940184178079840786E
:100AE00081424CD106980019431E3019421E3046EF
:100AF0000699FFF747FD002004903CE0002733E013
:100B00001098002813D14A206843AF494018801C30
:100B10000499405C0121B9400840002803D008989E
:100B2000FFF716FD1EE00E98FFF712FD1AE04A20AF
:100B30006843A5494018801C0499405C0121B940D4
:100B40000840002804D03046089A0699FFF76DFE49
:100B5000761C0198301AA04204D1019E0698401CD0
:100B6000069003E0781CC7B2082FC9DB00BF0498C9
:100B7000401CC0B20490029904988842BED300BFC2
:100B80006D1C039885429CD309B0F0BDFFB585B0BC
:100B900006460F9C01962046E117490F0918C91017
:100BA000614302910520039000255FE02220684305
:100BB0008649095C07980078814255D12220684314
:100BC0008249401841780798407881424CD1069874
:100BD0000019431E3019421E30460699FFF7D2FC19
:100BE000002004903CE0002733E01098002813D147
:100BF0002220684375494018801C0499405C0121FB
:100C0000B9400840002803D00898FFF7A1FC1EE077
:100C10000E98FFF79DFC1AE0222068436B494018AC
:100C2000801C0499405C0121B9400840002804D090
:100C30003046089A0699FFF7F8FD761C0198301A9D
:100C4000A04204D1019E0698401C069003E0781C47
:100C5000C7B2082FC9DB00BF0498401CC0B2049083
:100C6000029904988842BED300BF6D1C0398854248
:100C70009CD309B0F0BDFFB583B015460E9F0C9E06
:100C80000D9C29E0102C09D10297009601942A4668
:100C9000069B04990398FFF779FF19E0182C09D1F6
:100CA0000297009601942A46069B04990398FFF741
:100CB000F8FE0DE0202C09D10297009601942A46F7
:100CC000069B04990398FFF777FE01E007B0F0BD9B
:100CD000AD1C03980019039028780028D2D100BFDA
:100CE000F4E7FFB585B0054617460F9C00952046F2
:100CF000E10F0918C9050E0E3046F117490F091802
:100D0000C9106143019138462038C7B206980019CE
:100D1000431EA819421E28460699FFF733FC0020FF
:100D2000029049E0102C06D1380129494118029857
:100D3000085C04900AE0202C06D1B801254941182E
:100D40000298085C049001E009B0F0BD0020039017
:100D50002BE0109800280ED10120039988400499B7
:100D60000840002803D00898FFF7F2FB19E00E981E
:100D7000FFF7EEFB15E00120039988400499084035
:100D8000002804D02846089A0699FFF74EFD6D1CEE
:100D90000098281AB04204D1009D0698401C069085
:100DA00006E00398401CC0B2039003980828D0DBEB
:100DB00000BF0298401C0290019902988842B1D36A
:100DC00000BFC1E7364A0008C44800081A480008B6
:100DD0006A2A00085A300008FFB583B00646144658
:100DE0000C9F0D9D0FE00E980097019502902278C0
:100DF0003046069B0499FFF774FF2846E90F09184F
:100E000049108E19641C20780028ECD107B0F0BD81
:100E100010B50246012002E00346534318460B4634
:100E20004C1EE1B2002BF7D110BDFFB587B01E46B6
:100E3000129D002006902846E90F0918C905090EE1
:100E4000059100243CE0301B401EC1B20A20FFF790
:100E5000DFFF01460390099800F070FD0A2104901D
:100E600000F06CFD0F460698002815D1701EA042B8
:100E700012DD002F0ED11198019502910090059876
:100E800060430799401804902022109B0899FFF7AF
:100E900028FF13E00120069000211198019502918E
:100EA000009038463030C2B2059860430799401828
:100EB0000490109B0899FFF714FF00BF601CC4B298
:100EC000B442C0DB0BB0F0BDFFB587B007461C468F
:100ED000129E3046F10F0918C905090E05913A49CD
:100EE000099800F041FD039000F02EFE04900025CB
:100EF00037E0601B401EC1B20A20FFF789FF0146A0
:100F00000290049800F01AFD0A21039000F016FDEB
:100F10000691A01EA84212D10021119801960291BB
:100F20000090A01E05994843C01903902E22109BE3
:100F30000899FFF7D6FE681CC5B2601CC4B2002138
:100F4000119801960291009006983030C2B205982F
:100F50006843C0190390109B0899FFF7C2FE681CF4
:100F6000C5B2A542C5DB0BB0F0BDFFB583B00746E7
:100F700014461D46002604984019431E3819421E87
:100F800038460499FFF7FEFA0020029017E000208F
:100F900001900EE072000C99885CFFF7D3FA7100A3
:100FA000491C0C9A505CFFF7CDFA761C0198401C46
:100FB00001900198A842EDD30298401C029002983B
:100FC000A042E4D307B0F0BD0000C84210B5042031
:100FD000C04300F09CFC2D492D48006800F0AEFC99
:100FE00040B22C490870002008567D21C9004843B2
:100FF00000B22949088010BD0146264A0023D35675
:101000000A465A43254B5A6100229A611A461269D0
:1010100001231A43214B1A6100BF204A1069C207FD
:10102000D20F002A04D0012212040240002AF4D078
:101030001A4A126952085200184B1A6100229A612A
:1010400070470146144A0023D35E0A465A43134BA5
:101050005A6100229A611A46126901231A430F4B02
:101060001A6100BF0D4A1069C207D20F002A04D0CE
:10107000012212040240002AF4D0084A12695208E0
:101080005200064B1A6100229A61704700127A00E2
:1010900000000020140000201600002000E000E006
:1010A00010B504460920C006844209D10121480434
:1010B00000F095FB00210120400400F090FB30E09F
:1010C0006E48844208D10121000200F088FB002113
:1010D000200200F084FB24E06948844208D1012109
:1010E000000200F07CFB0021200200F078FB18E0F9
:1010F0006448844209D10121080500F070FB0021F9
:101100000120000500F06BFB0BE05F48844208D132
:101110000121880500F063FB00210120800500F01B
:101120005EFB10BDF0B50A4600210023002400BF7D
:101130003DE001258D402B4615681D402C469C4204
:1011400034D11579012D02D01579022D16D185687B
:101150004F000326BE40B543856055794E00B5402B
:10116000866835438560858801268E40B543858035
:10117000858896798E40B6B23543858005684F00E4
:101180000326BE40B543056015794E00B54006689C
:1011900035430560C5684F000326BE40B543C560B2
:1011A000D5794E00B540C6683543C560491C102945
:1011B000BFD3F0BD354901600021017102214171A9
:1011C00000218171C171704708B50122120400929B
:1011D000009A0A430092009AC261C161009AC261FA
:1011E000C2690092C269009208BD02460020138ABB
:1011F0000B40002B01D0012000E000207047014689
:10120000088A704702460020938A0B40002B01D0C9
:10121000012000E0002070470146888A7047816104
:10122000704701857047002A01D0816100E0018587
:10123000704781827047F0B5002300244D07EE0E01
:101240001546B5402B46CD10AE0005462035AD59AC
:101250004E07F70E0F26BE40B543CE10B600074628
:101260002037BD51CD10AE003D46AD591D432C4633
:10127000CD10AD003E467451F0BD000000040048A2
:1012800000080048000C004800140048FFFF000060
:10129000FD48006801210843FB4908600846406892
:1012A000FA490840F849486008460068F84908408B
:1012B000F549086008460068012189048843F2491D
:1012C0000860084640683F2109048843EE494860A9
:1012D0000846C06A00090001C8620846006BFF2189
:1012E00054318843E84908630846406B4008400091
:1012F00048630020886070470021E34A91701146DE
:101300008870704710B5024600210023002051115B
:10131000002902D1DC4C23680BE0012902D1DA4C10
:10132000236A06E0022902D1D74C636A01E0D64C59
:10133000636BD106C90E01248C401C40002C01D0E7
:10134000012000E0002010BD38B5002000900024EE
:10135000002500BF1120FFF7D5FF05460098401C6F
:101360000090052109020098884201D0002DF1D09B
:101370001120FFF7C7FF002801D0012400E000245E
:10138000204638BD01460020BF4A1068F8230246B7
:101390009A431046CA001043BB4A106070470028A9
:1013A00006D0B949096801221143B74A116005E026
:1013B000B549096849084900B34A116070470146B8
:1013C0000020B14A506BF82302469A431046CA00E7
:1013D0001043AD4A50637047002806D0AA49496BB4
:1013E00001221143A84A516305E0A749496B490806
:1013F0004900A54A51637047002806D0A249496BAD
:1014000004229143A04A516305E09F49496B04229D
:1014100011439D4A516370479B49096A4908490035
:10142000994A11621146096A04229143964A11624F
:101430001146096A0143116270479349096A1822EB
:101440009143914A11621146096A01431162704742
:10145000002806D08C49496A012211438A4A516208
:1014600005E08949496A49084900874A516270473D
:10147000854A52683D231B049A43834B5A601A469F
:10148000526803460B431A437F4B5A60704700284B
:1014900007D07D4909680122120611437A4A11607A
:1014A00006E079490968012212069143764A1160E3
:1014B000704701460020744AD06A000900010246C4
:1014C0000A431046704AD0627047002807D06E4920
:1014D00009680122D20411436B4A116006E06A498F
:1014E00009680122D2049143674A11607047664936
:1014F000C871704701460020634A50688008800028
:1015000002460A431046604A506070475E48406891
:101510000C2108407047014600205B4A5068F023C8
:1015200002469A43104602460A431046564A506005
:10153000704701460020544A506807231B020246A8
:101540009A43104602460A4310464F4A506070477D
:101550004D4949680122920391434B4A516011461B
:10156000496882B21143484A51601146096B92158D
:101570009143454A11631146096B020C1143424ADB
:10158000116370474049096B402291433E4A116301
:101590001146096B0143116370473B49096B1022E7
:1015A0009143394A11631146096B01431163704736
:1015B0003549096B89088900334A11631146096B63
:1015C000014311637047FEB5044600250026002044
:1015D0000190009000272C4840680C2108400546E7
:1015E000002D04D0042D05D0082D28D105E0294870
:1015F000206027E02748206024E0234840680F212E
:101600008904084006462048406801210904084032
:101610000190B00C861C0198002803D11E4870432D
:1016200020600BE01848C06A0007000F401C0090C3
:101630001848009900F082F97043206002E01548D4
:10164000206000BF00BF10484068F02108400546F8
:101650002D091248475D2068F84060600A484068DC
:1016600007210902084005462D0A0C48475D6068BD
:10167000F840A0600448006BFF2101310840884217
:1016800010D00748E0601BE0001002400CB8FFF8E3
:10169000FFFFF6FE00127A0000093D00180000204E
:1016A000809FD50075484068012189030840884221
:1016B00003D0A0684008E06002E0A0688008E06015
:1016C0006E48006B40210840402802D06C482061E1
:1016D00002E00120C00320616848006B102108402F
:1016E000102802D06748606101E0206860616348AB
:1016F000006B8007800F002802D1A068A06119E06C
:101700005E48006B8007800F012802D12068A0612D
:1017100010E05A48006B8007800F022802D1800336
:10172000A06107E05548006B8007800F032801D1B6
:101730005448A061FEBD5149096A01434F4A1162F4
:101740007047002807D04D49096A0122D20311438E
:101750004A4A116206E04949096A0122D2039143CB
:10176000464A11627047002807D04449096A01229D
:1017700012041143414A116206E04049096A0122FC
:10178000120491433D4A11627047002905D03B4A3B
:1017900052690243394B5A6104E0384A5269824324
:1017A000364B5A617047002905D0344A926902438A
:1017B000324B9A6104E0314A926982432F4B9A611D
:1017C0007047002905D02D4AD26902432B4BDA61BC
:1017D00004E02A4AD2698243284BDA617047002923
:1017E00005D0264A926A0243244B9A6204E0234AB7
:1017F000926A8243214B9A627047002905D01F4AA2
:10180000D26802431D4BDA6004E01C4AD26882436E
:101810001A4BDA607047002905D0184A1269024352
:10182000164B1A6104E0154A12698243134B1A6180
:101830007047002905D0114A527A02430F4B5A7261
:1018400004E00E4A527A82430C4B5A7270470B489E
:10185000406A012109060843084948627047014669
:101860000020064A92680A40002A01D0012000E0C8
:101870000020704701498872704700000010024044
:101880001280000000127A0000218278002A27D0FE
:10189000274A03231B02D21803789B109B00D158C0
:1018A00002789207D30EFF229A400B4693431946C3
:1018B00042789207120E03789B07DB0E9A40114381
:1018C0001B4A03231B02D21803789B109B00D150A4
:1018D0000278D306DB0E01229A40154B1A6007E00E
:1018E0000278D306DB0E01229A40114B80331A6036
:1018F0007047002905D00F4A126902430D4B1A6147
:1019000004E00C4A126982430A4B1A6170470428AA
:1019100006D10949096904221143074A116105E00A
:101920000549096904229143034A11617047000087
:1019300000E100E000ED00E000E000E030B50B4623
:10194000014600202022012409E00D46D5409D4299
:1019500005D31D469540491B25469540401915461F
:10196000521E002DF1DC30BD024670B54A40D30F47
:10197000DB0740002DD04A002AD0010E140E0002D1
:1019800012020919400A520A8418E5010446544318
:10199000000A120A2E045043A4194219200CC54310
:1019A000AA18120C0125AD03521C521912047F39DA
:1019B000240400D0521C104301D44000491EC2B27E
:1019C0000C06C0092018401C4008802A02D003E001
:1019D000002070BD40084000002900DA00201843B4
:1019E00070BD0000F0B507460846584087B0C00FEC
:1019F000049048000E46590040084908BC1A884126
:101A000005D2384631461E4617460B460246580058
:101A1000400810434CD0300D039040055900400D54
:101A2000490D0590401A0290402872DA18030121EE
:101A3000000B09050843019004980092002805D086
:101A40000199524200208841009201900298402161
:101A50000A1A0199009800F0BBF805460C466B463F
:101A600007CB00F0C5F8C0197141039A0E0D002391
:101A7000D71756401A467A40164344D0049A002A93
:101A80002DD0029A012A039A15DC1205C01A914141
:101A900001263605001C7141D20F059ED207009326
:101AA000019202962A46234600F003F907B0F0BDE2
:101AB00038463146FAE71605224A0F46B218C01AD0
:101AC000B74101210905001C4F4100187F41114613
:101AD00018187941E20F10436D19644113E0E207D1
:101AE0006D0815436408C2071443039A01261205C2
:101AF000C01A91413605001C7141CE0740083043A1
:101B00004908C01851412A46234600F0C5F8CDE7E0
:101B1000FFE7049801224000C117121A00238B41ED
:101B200004983146C417381AA141EEE730B40124B5
:101B3000E407634030BC55E730B40124E40761405A
:101B400030BC4FE70000E0FF410040020122400AA4
:101B5000D205090E80187F2901DA002070479629E6
:101B600003DC9622511AC840704796398840704766
:101B7000C20FD207400040080BD0C10D0723DB0184
:101B8000C91840020905400A1143C2084007114321
:101B90007047002001467047CB0FDB07490010B5A6
:101BA000490802460A4307D00A0D07240903E40145
:101BB000090B121B002A01DC002010BDC900440FD4
:101BC0000C43C100E018D205801800F024F810BDC5
:101BD00010B5202A04DB0146203A9140002010BDB8
:101BE000914020239C1A0346E3401943904010BDC6
:101BF00010B5202A06DBCB170846203A1041C11742
:101C00000B4306E00B461341D0402024A21A91401A
:101C10000843194610BD002904DA401C490001D1CF
:101C200040084000704770B40024050C05D1102412
:101C3000000402D1002921D01124050E01D1000297
:101C40000834050F01D10001241D850F01D180004A
:101C5000A41C002801DB4000641C002908D02025BA
:101C60002E1B0D46F540A14000D001212943084319
:101C700001061B1B000ADB1D02D5002070BC70474B
:101C8000DB05181880180029F8DA401C4900F5D146
:101C900070BC40084000704710B5002B08DA0024E3
:101CA000401C614192185B411A4301D14008400039
:101CB00010BDF0B51FB482B005460C0003D0084635
:101CC00000F06DF802E000F06AF820300246009063
:101CD00021462846FFF77CFF049B059A04460F46E1
:101CE00018431143084314D0184610431BD00098E2
:101CF00040210A1A1846059900F040F805460E469C
:101D0000009A05990498FFF763FF084305D0012066
:101D100004E02046394607B0F0BD0020C117054356
:101D20000E432C43374300990E986305401A7905FA
:101D3000E40A00220C43FD0A0A3002D500200146C5
:101D4000E9E70105101969410C9C0D9D00196941D5
:101D5000FFF7A2FFDFE70000064C0125064E05E075
:101D6000E36807CC2B430C3C98471034B442F7D3BC
:101D7000FEF7AAF9C04C0008E04C000810B5202A74
:101D800004DB0846203AD040002110BD0B46D3406A
:101D9000D0402024A21A91400843194610BD2021AA
:101DA000020C01D010211046020A01D01046083959
:101DB000020901D01046091F820801D01046891E71
:101DC000420801D0881E7047081A704702E008C810
:101DD000121F08C1002AFAD170477047002001E0A5
:101DE00001C1121F002AFBD17047FFFFFFFFFFFF59
:101DF000FFFFFFFFFFFFFFFFFFFFFFFFFFFFFFFFF3
:101E0000FFFFFFFFFFFFFFFFF7BEFFFFFFDEC6384C
:101E10008C926B8E6B6E7C10AD96E73CFFFFFFFFE4
:101E2000FFFFFFFFFFFFFFFFFFFFFFFFFFFFFFFFC2
:101E3000FFFFFFFFFFFFFFFFFFFFFFFFFFFFFFFFB2
:101E4000FFFFFFFFFFFFFFFFFFFFFFFFFFFFFFFFA2
:101E5000FFFFFFFFFFFFFFFFEF5D9D15634F426C2C
:101E6000320A298819461925214531E86B8EC63872
:101E7000FFFFFFFFFFFFFFFFFFFFFFFFFFFFFFFF72
:101E8000FFFFFFFFFFFFFFFFFFFFFFFFFFFFFFFF62
:101E9000FFFFFFFFFFFFFFFFFFFFFFFFFFFFFFFF52
:101EA000FFFFFFFFFFFFA53653104B1053514B0FA1
:101EB0003A6C31E92167192510E408A30062088310
:101EC00052CBD69AFFFFFFFFFFFFFFFFFFFFFFFF91
:101ED000FFFFFFFFFFFFFFFFFFFFFFFFFFFFFFFF12
:101EE000FFFFFFFFFFFFFFFFFFFFFFFFFFFFFFFF02
:101EF000FFFFE73C637063B37CB863F54311324D79
:101F000029EA21881926190519051104110410E47C
:101F1000008308A38C72FFFFFFFFFFFFFFFFFFFF9F
:101F2000FFFFFFFFFFFFFFFFFFFFFFFFFFFFFFFFC1
:101F3000FFFFFFFFFFFFFFFFFFFFFFFFFFFFFFFFB1
:101F4000DEDB3A4B42F06C354B5432B12A2E21EB9A
:101F500021A91967190511041104110411041104B0
:101F6000190510E4004273AFFFFFFFFFFFFFFFFF03
:101F7000FFFFFFFFFFFFFFFFFFFFFFFFFFFFFFFF71
:101F8000FFFFFFFFFFFFFFFFFFFFFFFFFFFFEF5D13
:101F90003209324C4B10328F2A4F2A2E19CC198914
:101FA0002189194719051104110410C410C4110422
:101FB0001104110410E400428431FFFFFFFFFFFF12
:101FC000FFFFFFFFFFFFFFFFFFFFFFFFFFFFFFFF21
:101FD000FFFFFFFFFFFFFFFFFFFFFFFFFFFF52ECD1
:101FE0001947324C2A0B21EC21EC220C5B914AEE72
:101FF00011061926190410E410E429A7216608A384
:1020000019051104110410E40082BDF7FFFFFFFF62
:10201000FFFFFFFFFFFFFFFFFFFFFFFFFFFFFFFFD0
:10202000FFFFFFFFFFFFFFFFFFFFFFFFA535088357
:1020300021882188218921AA218A426B8C71FFFF86
:102040008C720883110408C44229DEFBEF5D5AEC50
:102050000883110411041104088331E8FFDFFFFF36
:10206000FFFFFFFFFFFFFFFFFFFFFFFFFFFFFFFF80
:10207000FFFFFFFFFFFFFFFFFFFFF7BE31C710C4E9
:10208000192519261947194729A8528A4A28AD55F2
:10209000FFFF31E808A319056B4D6B4DFFFFEF7D86
:1020A000214510C41104110411040062AD76FFFF34
:1020B000FFFFFFFFFFFFFFFFFFFFFFFFFFFFFFFF30
:1020C000FFFFFFFFFFFFFFFFFFFFB5960062110458
:1020D00019041105190508C44A8BB5B6EF5DBDF7A3
:1020E000FFFF6B8E006242295AAA4208FFFFFFFFE2
:1020F00052CC088311041104110408A352ADFFFF50
:10210000FFFFFFFFFFFFFFFFFFFFFFFFFFFFFFFFDF
:10211000E71CFFFFFFFFFFFFFFFF634E006211049C
:102120001104110410E40062638EFFFFFFFFFFFF44
:10213000FFFF73CF00019CF3632CB596FFFFFFFFF9
:102140005B2D008311041104110410E42167EF3D9D
:10215000FFFFFFFFFFFFFFFFFFFFBDF8B5B7EF9EDB
:1021600052CB94B3FFFFFFFFFFDF31E808A3110458
:1021700011041104110408A34249F7FFF7FFFFFF00
:10218000FFFF4A6A00018472FFFFFFFFF7FFEFDFE6
:102190003A0908A311041104110411041105BE1811
:1021A000FFFFFFFFFFFFFFFFFFFF7BF0006231E853
:1021B00031C70041A535FFFFEF5D214610C4110472
:1021C00011041104110410E408A39D76F7FFFFFF2A
:1021D000ADB708A308A331C7E79EF7FFF7FFA576C1
:1021E00008A310E411041104110411051105A5350B
:1021F000FFFFFFFFFFFFFFFFFFFFDEDB29A70083DD
:1022000010C410C410C4E71CEF9E110510E41104A3
:10221000110411041104190408C410E56BD16BD129
:1022200008C5006408A50043322B9D7784B31925A7
:1022300010C41104110411041104192509269D3537
:10224000FFFFFFFFFFFFFFFFFFFFFFFF73AF006216
:102250001904190500825B0D9B8E10621105110493
:102260001104190410E40085110539C45A817B401A
:102270009C22AC43A4039B837282498218C200A4AF
:1022800000C510E4190411041905194711675AEC27
:10229000FFBEFFFFFFFFFFFFFFFFFFDFDEDB10C41E
:1022A00010E41104110518A4C001888300E4190585
:1022B000190408C521448343D523FE42FEE4FF27C9
:1022C000FF07FEA4FE64FE03FDA3FCE2EC42B38321
:1022D000622410E508C41904192619A82187900062
:1022E000BCD3FFFFFFFFFFFFFFFFFFDFFFFF7C10FF
:1022F0000042190511052883D001F84448A300E4E1
:1023000008C55A44ED02FDE2FE02FE66FF74FFB806
:10231000FF73F6E7F6A6F645F5A4FCC3FC62FCC223
:10232000FCC2CBE349C411061988018790A4F801C7
:102330009AECFFFFFFFFFFFFFFFFFFFFFFFFF7BE6E
:1023400031E8008309054082C001F823F08548A3E5
:1023500000A45A44FD02CC23DCC2FE04FE28F64849
:10236000F646F624F5E4FD64FCE3FC62FCC2E402FC
:10237000DC02FCE27AA40148016778C4F824F80280
:10238000B084E77DFFFFFFFFFFFFFFFFFFFFFFFFC1
:10239000DEDB192500A338C4E002D822F844F8A6F1
:1023A00078A400632143728339839B82F521FD6108
:1023B000FD22FCE2FCA2FC42FC42FC42AB22418337
:1023C00092C352040126192598A4F844F823F80270
:1023D000D0A4EF9EFFFFFFFFFFFFFFFFFFFFFFFF08
:1023E000FFFFD69A298700A5B843F822E023F865B5
:1023F000F8E8C9074883004200A3008429637AA251
:10240000B362CBA2D362BB028A82398300A400E507
:1024100000E508E560C4D864F844F824F823F8021D
:102420008883C6DBFFFFFFFFFFFFFFFFFFFFFFFF0C
:10243000FFFFFFFFE73D5B503108E823F843F0441E
:10244000F865F909F9ABD189890648A31842000259
:1024500000420061008200620062008320A350C439
:1024600088A5D885F865F844F844F823F823D00304
:10247000108229C7EF5DFFFFFFFFFFFFFFFFFFFF98
:10248000FFFFFFFFFFFFFFFF326C38A5D802F823E4
:10249000F865F866F8A7F94AFA0CFA4DEA4CD20B3F
:1024A000B9A9B168A947B127B907D107E8E7F8C7C3
:1024B000F8A7F865F865F844F823F803D00228A3D4
:1024C000090508C45AECFFFFFFFFFFFFFFFFFFFFF6
:1024D000FFFFFFFFFFFFDEFB190500C441A7C0E6B9
:1024E000F803F886F8A7F887F886F8C7F929F98A73
:1024F000F9ABF9ABF98BF96AF929F908F8C7F8A62D
:10250000F886F865F864F823F002B106292500E49E
:1025100010E4192519259D14FFFFFFFFFFFFFFFFA2
:10252000FFFFFFFFFFFFAD96006208829535CEBA30
:10253000A28BD044F825F887F8A7F8C7F8A7F88742
:10254000F886F886F886F887F8A7F8A7F8A6F88539
:10255000F865F864F024B864930DB6BB63CF0883C4
:10256000110410E421663A49EF5DFFFFFFFFFFFF12
:10257000FFFFFFFFFFFF94D3004210E4CEBBFFFF3D
:10258000E7BEB576AACCC107E045F845F846F8663F
:10259000F886F886F886F886F865F845F865E865FF
:1025A000D044A84388019082D73CEFFF955508831B
:1025B000110411041905194694B3FFFFFFFFFFFF33
:1025C000FFFFFFFFFFFF94B300412186DF5DFFFFA8
:1025D000FFFFFFFFE7DFC67AB4D3B34EC22AD1684C
:1025E000E0E6E8A6E8A5E8A5D8E6C988A906A822F5
:1025F000A802A000C800D800E5F7E7FFADF810C4B6
:1026000010E4110410E411054A8BFFFFFFFFFFFFE8
:10261000FFFFFFFFFFFFA555004129A7DF5DF7FF83
:10262000FFFFFFFFFFFFFFFFFFFFEFFFDF7DCEDBC1
:10263000CE59CDF8CDD7C5F7CE79BEFBA2ABF0030E
:10264000F845D042E843F000D472DFFFAE3910E421
:1026500010E4110410E411052987FFFFFFFFFFFFBD
:10266000FFFFFFFFFFFFCE5908832146D71CF7FF6E
:10267000FFFFFFFFFFFFFFFFFFFFFFFFFFFFFFFF6A
:10268000FFFFFFFFFFFFFFFFFFFFEFFFBA8BF80425
:10269000F845E062F044F800DB8EDFFFA5F810C4D7
:1026A00010E410E4110410E41925FFFFFFFFFFFF01
:1026B000FFFFFFFFFFFFF7BE29870883B639F7FF4B
:1026C000F7DFFFFFFFFFFFFFFFFFFFFFFFFFFFFF42
:1026D000FFFFFFFFFFFFFFFFFFFFE7BEBA4AF80360
:1026E000F845F864F844F800E36ED7FF8CF40883EB
:1026F000110410E410E410E41905FFFFFFFFFFFFD1
:10270000FFFFFFFFFFFFFFFF73EF00008472EFFF8B
:10271000EFBEFFDFFFFFFFFFFFFFFFFFFFFFFFFF3A
:10272000FFFFFFFFFFFFFFFFFFFFE7DFBA8BF803AD
:10273000F845F845F823F800D4D3D7FF5B4E0021C5
:102740003A29A555088310C41925FFFFFFFFFFFF95
:10275000FFFFFFFFFFFFFFFFDEFB08A331E8DF9E67
:10276000E79EEFBFFFFFFFFFFFFFFFFFFFFFFFFF42
:10277000FFFFFFFFFFFFFFFFFFFFF7FFBC51E0027E
:10278000F803F003E043C2ECCF7EBEFC21460021FB
:1027900094D3FFFF845100002987FFFFFFFFFFFF55
:1027A000FFFFFFFFFFFFFFFFFFFF845100008CF4DE
:1027B000EFFFE79EEFBFFFDFFFFFFFFFFFFFFFFF22
:1027C000FFFFFFFFFFFFFFFFFFFFFFFFDF3DBD55E7
:1027D000BC52BC72B5B7C75DDFFF6BF000003A09B1
:1027E000F7BFFFFFFFFF9D14A555FFFFFFFFFFFF92
:1027F000FFFFFFFFFFFFFFFFFFFFFFFF4AAC08A443
:10280000BEBBE7DFE77EEFBEF7DFFFDFFFFFFFFFC7
:10281000FFFFFFFFFFFFFFFFFFFFFFDFF7DFEFFF20
:10282000DFDFD7BFD79EDFDFA5D808831126D6DB31
:10283000FFFFFFFFFFFFFFFFFFFFFFFFFFFFFFFFA8
:10284000FFFFFFFFFFFFFFFFFFFFEE79DC8B312172
:1028500021A9CF3DDFBFDF7EE79EEFBEEFBFF7DFF1
:10286000F7DFF7DFF7DFF7DFEFBFEFBEE79EDF7ED3
:10287000D75ED75EDFDFB69A19260842A3EDFFBF09
:10288000FFFFFFFFFFFFFFFFFFFFFFFFFFFFFFFF58
:10289000FFFFFFFFFFFFFFFFDD74DBC0FE00EE4226
:1028A00042022189B67BDFDFD77EDF7EDF7EE79EB7
:1028B000E79EE79EE79EE79EDF7EDF7ED75DD75DE2
:1028C000DF9EE7FFA5F8110718E3C502FD60D3E618
:1028D000EEDBFFFFFFFFFFFFFFFFFFFFFFFFFFFF3D
:1028E000FFFFFFFFFFFFF79EBA84FCC1FE42FE829E
:1028F000FEA2838121457474C75EDFDFD77ED75E79
:10290000D75DD75ED75ED75DD75DD75EDF9EE7FF29
:10291000C73D63F108845242E626FF29FE86F3E0B4
:10292000C36AFFFFFFFFFFFFFFFFFFFFFFFFFFFF88
:10293000FFFFFFFFFFFFDE18D2C1FDA2FE22FE4215
:10294000FE42FE62D4E26A4142497453A63BC73E4E
:10295000D7BFD7BFD7BFDFBFD7BFC73EA61A63F267
:1029600029A74182B422FE62FE83FEAAFF0FFD6703
:10297000BA63EF3CFFFFFFFFFFFFFFFFFFFFFFFF1B
:10298000FFFFFFFFFFFFE69AD280FD21FDC2F5E2C7
:10299000F5C2F582FD82FD62DC619B216A846AE9F1
:1029A000632C63AF7411636E632C5A8952047A816D
:1029B000CBC2FCE2FD62FD82FDC2FDC2FDE4FD244E
:1029C000CA62E71CFFFFFFFFFFFFFFFFFFFFFFFFE4
:1029D000FFFFFFFFFFFFFFFFCCB1D281F3C0FCC1BF
:1029E000FD02FD02FCE2FCC2FCC2FC81FB80C9C00E
:1029F00081A4AD35CE599C718121DA00FBA1FC8206
:102A0000FCA2FC82FCA2FD02FD22FCE2FC00DA60DA
:102A1000CC90FFFFFFFFFFFFFFFFFFFFFFFFFFFF68
:102A2000FFFFFFFFFFFFFFFFFFFFDE59C40DCB06D7
:102A3000D2E4DB03DB03DAE3D2C3C2A4B309BCD222
:102A4000F79EFFFFFFFFFFFFE6FBB40EBAA6D2839F
:102A5000E2E3EB02EB22E322DB03D2E4C36AD5B666
:102A6000FFFFFFFFFFFFFFFFFFFF00000000000070
:102A7000000000000000000000000000000808083E
:102A80000808080800001818000000486C2412000C
:102A900000000000000000000000000000242424CA
:102AA0007F1212127F12121200000000081C2A2A44
:102AB0000A0C1828282A2A1C0808000000222515BC
:102AC00015152A585454542200000000000C12120C
:102AD000120A76252911916E0000000606040300F3
:102AE000000000000000000000000040201010085E
:102AF0000808080808101020400000020408081008
:102B0000101010101008080402000000000008084F
:102B10006B1C1C6B08080000000000000000080887
:102B200008087F08080808000000000000000000F6
:102B30000000000000000606040300000000000082
:102B40000000FE0000000000000000000000000087
:102B50000000000000000606000000008040402049
:102B6000201010080804040202000000001824428B
:102B700042424242424224180000000000080E086F
:102B8000080808080808083E00000000003C42420F
:102B9000422020100804427E00000000003C424217
:102BA000201820404042221C000000000020302855
:102BB000242422227E20207800000000007E0202D1
:102BC000021A26404042221C000000000038240265
:102BD000021A26424242241800000000007E2222EF
:102BE000101008080808080800000000003C4242D5
:102BF000422418244242423C0000000000182442B3
:102C0000424264584040241C0000000000000000C4
:102C10001818000000001818000000000000000054
:102C20000008000000000008080400000040201018
:102C3000080402040810204000000000000000000A
:102C40007F0000007F000000000000000002040878
:102C5000102040201008040200000000003C424206
:102C6000464020101000181800000000001C225AD6
:102C7000555555552D42221C00000000000808182B
:102C80001414243C224242E700000000001F2222CC
:102C9000221E22424242221F00000000007C4242CB
:102CA000010101010142221C00000000001F22421C
:102CB000424242424242221F00000000003F4212B4
:102CC000121E12120242423F00000000003F421258
:102CD000121E12120202020700000000003C222213
:102CE000010101712122221C0000000000E7424284
:102CF00042427E42424242E700000000003E080895
:102D0000080808080808083E00000000007C1010B1
:102D10001010101010101010110F00000077221268
:102D20000A0E0A1212222277000000000007020297
:102D3000020202020202427F0000000000773636E3
:102D400036362A2A2A2A2A6B0000000000E346466B
:102D50004A4A52525262624700000000001C22415F
:102D6000414141414141221C00000000003F4242DC
:102D700042423E020202020700000000001C224103
:102D8000414141414D53321C60000000003F42422E
:102D9000423E1212222242C700000000007C424242
:102DA000020418204042423E00000000007F490813
:102DB000080808080808081C0000000000E7424254
:102DC000424242424242423C0000000000E742428E
:102DD000222424141418080800000000006B49493C
:102DE00049495555362222220000000000E74224BE
:102DF00024181818242442E700000000007722223B
:102E0000141408080808081C00000000007E212097
:102E1000101008040442423F000000780808080827
:102E200008080808080808087800000002020404DE
:102E300008080810102020204040001E101010101C
:102E400010101010101010101E0000384400000068
:102E50000000000000000000000000000000000072
:102E6000000000000000000000FF00060800000055
:102E70000000000000000000000000000000000052
:102E8000003C4278444242FC000000000003020281
:102E9000021A26424242261A0000000000000000EA
:102EA0000038440202024438000000000060404044
:102EB00040784442424264D8000000000000000014
:102EC000003C427E0202423C0000000000F0880804
:102ED000087E08080808083E000000000000000006
:102EE000007C22221C023C42423C00000003020201
:102EF000023A4642424242E700000000000C0C0049
:102F0000000E08080808083E0000000000303000ED
:102F10000038202020202020221E00000003020272
:102F20000272120A1612227700000000000E080832
:102F3000080808080808083E00000000000000001B
:102F4000007F9292929292B7000000000000000071
:102F5000003B4642424242E7000000000000000001
:102F6000003C42424242423C00000000000000009F
:102F7000001B26424242221E020700000000000001
:102F8000007844424242447840E0000000000000E3
:102F900000774C040404041F00000000000000003F
:102FA000007C42023C40423E00000000000000085D
:102FB000083E080808080830000000000000000073
:102FC00000634242424262DC000000000000000058
:102FD00000E742242414080800000000000000005C
:102FE00000EB494955552222000000000000000076
:102FF000007624181818246E00000000000000005D
:1030000000E742242414180808070000000000000C
:10301000007E22100808447E000000C020202020EE
:103020002010202020202020C00010101010101090
:1030300010101010101010101010000608080808CA
:10304000081008080808080806000C32C200000032
:103050000000000000000000000000000000000070
:103060000000000000000000000000000000000060
:103070000000000000000000000000000000000050
:103080000000000000000000000000000000000040
:103090000000000000000000000000000000000030
:1030A00000000000C001C001C001C001C001C0019A
:1030B000C0018000800080008000800080008000CF
:1030C00000000000000000008001C003C003800178
:1030D00000000000000000000000000000000000F0
:1030E000E01CE01CF01E700E380718030801840075
:1030F00000000000000000000000000000000000D0
:1031000000000000000000000000000000000000BF
:1031100000000000000000000000000000000000AF
:1031200000000000000020102010201020102010AF
:10313000FE7FFE7F10081008100810081008100805
:103140001008FE7FFE7F0804080408040804080431
:10315000000000000000000000000000000000006F
:10316000000000010001C007601910311831183942
:10317000183938017001E001C0038007000F001DFD
:10318000003900311C311C310C310C11180DE007D5
:10319000000100010001000000000000000000002C
:1031A0000000000000001C1036186308630C630464
:1031B0006304630263026301361D9C3780228063CF
:1031C0004063406320632063306310221836081C7C
:1031D00000000000000000000000000000000000EF
:1031E000000000000000F00098018C018C018C01AF
:1031F0008C018C00CC007800183E1C083608320880
:1032000063046304C304C303834306438E26781C0C
:1032100000000000000000000000000000000000AE
:103220001C003C003C003000300010000C00060088
:10323000000000000000000000000000000000008E
:10324000000000000000000000000000000000007E
:10325000000000000000000000000000000000006E
:103260000040002000100008000C000400060003CD
:103270000003000380018001800180018001800142
:103280008001800100030003000300060006000C1B
:1032900000080010002000400000000000000000B6
:1032A0000200040008001000300020006000C00090
:1032B000C000C00080018001800180018001800188
:1032C00080018001C000C000C000600060003000CC
:1032D00010000800040002000000000000000000D0
:1032E00000000000000000000000000180038003D7
:1032F00000011C713C79783DC0070001C007783D92
:103300003C791C71000180038003800100000000F3
:1033100000000000000000000000000000000000AD
:10332000000000000000000000000000000100019B
:1033300000010001000100010001FC7F000100010B
:103340000001000100010001000100000000000078
:10335000000000000000000000000000000000006D
:10336000000000000000000000000000000000005D
:10337000000000000000000000000000000000004D
:10338000000000000000000000001C003C003C00A9
:103390003000300010000C000600000000000000AB
:1033A000000000000000000000000000000000001D
:1033B00000000000000000000000FE7F0000000090
:1033C00000000000000000000000000000000000FD
:1033D00000000000000000000000000000000000ED
:1033E00000000000000000000000000000000000DD
:1033F00000000000000000000000000000000000CD
:10340000000000000000000018003C003C00180014
:1034100000000000000000000000000000000000AC
:103420000040006000200030001000180008000C70
:103430000004000600020003000180018000C000BB
:1034400040006000200030001000180008000C0050
:103450000400060002000000000000000000000060
:10346000000000000000C007600C30181830183051
:1034700018200C600C600C600C600C600C600C6020
:103480000C600C601820183018303018600CC00721
:10349000000000000000000000000000000000002C
:1034A00000000000000000018001F801800180019F
:1034B0008001800180018001800180018001800104
:1034C000800180018001800180018001C003F81F1C
:1034D00000000000000000000000000000000000EC
:1034E000000000000000E007101C08180430043041
:1034F0000C300C30003000180008000400020001FD
:10350000800040002020102008200430FC1FFC1FF9
:1035100000000000000000000000000000000000AB
:10352000000000000000E003180E0C0C0C180C1832
:103530000C180018000C0006C003000E0018001044
:10354000003000300C300C300C100C18180CE0035C
:10355000000000000000000000000000000000006B
:10356000000000000000000C000E000E000F800E96
:10357000800E400E600E200E100E100E080E040E6F
:10358000040EFE7F000E000E000E000E000E000E58
:10359000C07F0000000000000000000000000000EC
:1035A000000000000000F03FF03F1000100010008D
:1035B00008000800C807280C181808100030003050
:1035C000003000300C300C3004180418080CF003E4
:1035D00000000000000000000000000000000000EB
:1035E000000000000000800FC010203010301800D4
:1035F000180008000C008C0F6C183C301C600C602C
:103600000C600C600C601860182030306018C00727
:1036100000000000000000000000000000000000AA
:10362000000000000000F83FF83F1C100C080408E0
:1036300004040004000200020001000100018000F7
:1036400080008000C000C000C000C000C000C000FA
:10365000000000000000000000000000000000006A
:10366000000000000000E007300C18180C300C308F
:103670000C301C3038187008E007B007180E0C1C0E
:10368000063806300630063006300C18180CE003F9
:10369000000000000000000000000000000000002A
:1036A000000000000000E00318040C080C180610CD
:1036B000063006300630063006380C3C1836F0313D
:1036C00000300018001800180C0C0C060C03F00158
:1036D00000000000000000000000000000000000EA
:1036E00000000000000000000000000000000000DA
:1036F000000000008001C003C00380010000000042
:1037000000000000000000008001C003C003800131
:1037100000000000000000000000000000000000A9
:103720000000000000000000000000000000000099
:1037300000000000C000C000000000000000000009
:10374000000000000000000000000000C000C000F9
:1037500080008000400040000000000000000000E9
:103760000000000000200010000800040006000314
:103770008001C0006000300018000C00180030000C
:103780006000C00080010003000600040008001073
:103790000020000000000000000000000000000009
:1037A0000000000000000000000000000000000019
:1037B00000000000FE7F000000000000000000008C
:1037C000FE7F00000000000000000000000000007C
:1037D00000000000000000000000000000000000E9
:1037E0000000000004000800100020006000C0007D
:1037F000800100030006000C001800300018000CC7
:10380000000600038001C0006000200010000800D6
:1038100004000000000000000000000000000000A4
:1038200000000000C0073018083008600C601C6001
:103830001C601C600030001C00060001800080003D
:1038400080008000000000008001C003C0038001F0
:103850000000000000000000000000000000000068
:10386000000000000000C0076018103018200C2F66
:103870008C4D864CC64CC64C664C664466446626E7
:1038800066266615CC1C0C40082018303018C0077E
:103890000000000000000000000000000000000028
:1038A000000000000001C001C001C0014001600330
:1038B0002003200320033006100610061006F80F20
:1038C000080C080C080C0C0C0418041806181F7CB3
:1038D00000000000000000000000000000000000E8
:1038E000000000000000FE07181C183818301830BF
:1038F000183018301818180CF80718181830182035
:103900001860186018601860186018301818FE0FDA
:1039100000000000000000000000000000000000A7
:10392000000000000000C0276038103018200C4054
:103930000C40040006000600060006000600060013
:10394000060006000C400C400C2018303018C00750
:103950000000000000000000000000000000000067
:10396000000000000000FE03180E18181830183070
:1039700018301860186018601860186018601860B7
:10398000186018601830183018101818180EFE0338
:103990000000000000000000000000000000000027
:1039A000000000000000FE3F18301820186018408A
:1039B000180018081808180CF80F180C1808180820
:1039C0001800180018001840184018201830FE3F42
:1039D00000000000000000000000000000000000E7
:1039E000000000000000FE7F1870184018C018800A
:1039F0001800181018101818F81F18181810181098
:103A000018001800180018001800180018007E0090
:103A100000000000000000000000000000000000A6
:103A2000000000000000C013701C101018100C20C3
:103A30000C2004000600060006000600060006FC36
:103A4000063006300C300C30183018303008C00703
:103A50000000000000000000000000000000000066
:103A60000000000000003F7E0C180C180C180C1809
:103A70000C180C180C180C180C18FC1F0C180C182F
:103A80000C180C180C180C180C180C180C183F7E7D
:103A90000000000000000000000000000000000026
:103AA000000000000000F81F8001800180018001FB
:103AB00080018001800180018001800180018001FE
:103AC0008001800180018001800180018001F81F58
:103AD00000000000000000000000000000000000E6
:103AE000000000000000E07F00060006000600065F
:103AF0000006000600060006000600060006000696
:103B00000006000600060006000600060006000685
:103B100000060E060E038E01FC00000000000000EF
:103B20000000000000007E7C181818081804180611
:103B30001802180198019801D801B8033803180732
:103B40001806180E180C181C1818183018307EFC9F
:103B50000000000000000000000000000000000065
:103B60000000000000007E00180018001800180077
:103B70001800180018001800180018001800180085
:103B80001800180018001840184018201830FE3F80
:103B90000000000000000000000000000000000025
:103BA0000000000000001FF81C381C381C381C3CAA
:103BB00034343434343434367432643264326432FB
:103BC0006431C431C431C431C430C43084309FFC4A
:103BD00000000000000000000000000000000000E5
:103BE0000000000000001F7C1C103C10341034103A
:103BF00074106410E410C410C411841184130413ED
:103C000004170416041E041C041C041C04181F18AA
:103C100000000000000000000000000000000000A4
:103C2000000000000000C003300C181808100C3011
:103C30000C3006600660066006600660066006607E
:103C4000066006600C200C3008101818300CC003F9
:103C50000000000000000000000000000000000064
:103C6000000000000000FE0F1818183018601860DF
:103C700018601860186018301818F80F180018002D
:103C800018001800180018001800180018007E000E
:103C90000000000000000000000000000000000024
:103CA000000000000000C003300C18180C100C308D
:103CB0000C2006600660066006600660066006600E
:103CC00006600660E4612C331C321816300EC00703
:103CD000004C007C003800000000000000000000E4
:103CE000000000000000FE07181C183818301830BB
:103CF000183018301818180CF8079803180318070C
:103D000018061806180E180C180C181C18187E78AF
:103D100000000000000000000000000000000000A3
:103D2000000000000000E027303818300C200C2084
:103D30000C000C0018007800E003800F001E003813
:103D40000070006004600460086018303818C80F04
:103D50000000000000000000000000000000000063
:103D6000000000000000FC3F8C2184618241824100
:103D7000800180018001800180018001800180013B
:103D80008001800180018001800180018001E007C5
:103D90000000000000000000000000000000000023
:103DA0000000000000003F7C0C100C100C100C10E8
:103DB0000C100C100C100C100C100C100C100C1023
:103DC0000C100C100C100C100C1008083804E00338
:103DD00000000000000000000000000000000000E3
:103DE0000000000000003EF81820182018203010B5
:103DF000301030103010600860086008E00CC0041B
:103E0000C004C0048003800380038003000100011C
:103E100000000000000000000000000000000000A2
:103E2000000000000000DFF38661862186218C21DE
:103E30000C218C238C138C138C134C135812581692
:103E4000580E380E380E380E300C100410041004C2
:103E50000000000000000000000000000000000062
:103E60000000000000007E3E1808380830043004CE
:103E700070026002E001C001C001800180034003C4
:103E8000400720062006100C100C081808183E7C6D
:103E90000000000000000000000000000000000022
:103EA0000000000000007E7C1C101810180830086C
:103EB000300C700460046002C002C002C0018001C6
:103EC0008001800180018001800180018001E00784
:103ED00000000000000000000000000000000000E2
:103EE000000000000000F83F18180818040C040E29
:103EF00000060007000380038001C001C000E0004D
:103F0000600070003000382018201C100C18FE1FB4
:103F100000000000000000000000000000000000A1
:103F2000C03F4000400040004000400040004000D2
:103F30004000400040004000400040004000400081
:103F40004000400040004000400040004000400071
:103F500040004000C03F00000000000000000000E2
:103F600000000000080018001800100030002000B9
:103F7000600060004000C0008000800180010001FE
:103F800000030002000600060004000C00080018F0
:103F900000180010003000200000000000000000A9
:103FA000FC03000200020002000200020002000204
:103FB00000020002000200020002000200020002F1
:103FC00000020002000200020002000200020002E1
:103FD00000020002FC0300000000000000000000DE
:103FE0008007C0062008101000000000000000003C
:103FF00000000000000000000000000000000000C1
:1040000000000000000000000000000000000000B0
:1040100000000000000000000000000000000000A0
:104020000000000000000000000000000000000090
:104030000000000000000000000000000000000080
:104040000000000000000000000000000000000070
:104050000000000000000000FFFF00000000000062
:104060007800C00000010000000000000000000017
:104070000000000000000000000000000000000040
:104080000000000000000000000000000000000030
:104090000000000000000000000000000000000020
:1040A0000000000000000000000000000000000010
:1040B00000000000F00318060C0C0C0C000C800F24
:1040C000700C1C0C0C0C060C060C064C0C4FF83833
:1040D00000000000000000000000000000000000E0
:1040E0000000000010001E00180018001800180042
:1040F00018001800180FD818383038601860186089
:104100001860186018601860182038307818C807D0
:10411000000000000000000000000000000000009F
:10412000000000000000000000000000000000008F
:1041300000000000C007700C181818180C180C00AC
:104140000C000C000C000C20182018103008C007C0
:10415000000000000000000000000000000000005F
:10416000000000000010001E0018001800180018C1
:1041700000180018E01B301C181818180C180C1820
:104180000C180C180C180C180818181C307AE009B8
:10419000000000000000000000000000000000001F
:1041A000000000000000000000000000000000000F
:1041B00000000000C007300C181808100C300C303C
:1041C000FC3F0C000C000C00182018107018C007E1
:1041D00000000000000000000000000000000000DF
:1041E000000000000000003E80C380C0C0C0C000CE
:1041F000C000C000FC1FC000C000C000C000C00064
:10420000C000C000C000C000C000C000C000F80F67
:10421000000000000000000000000000000000009E
:10422000000000000000000000000000000000008E
:1042300000000000C077306C1018181818181818F3
:104240001018300CF00718001800F00FF03F08703D
:104250000C600C600C603838E00F000000000000BB
:104260000000000010001E001800180018001800C0
:1042700018001800980FD818383018301830183037
:1042800018301830183018301830183018307EFCBC
:10429000000000000000000000000000000000001E
:1042A0000000000000008003800380030000000085
:1042B00000000001F801800180018001800180017F
:1042C0008001800180018001800180018001F81F50
:1042D00000000000000000000000000000000000DE
:1042E0000000000000000038003800380000000026
:1042F00000000010801F0018001800180018001897
:1043000000180018001800180018001800180018ED
:1043100000180018180C1806F00300000000000038
:104320000000000010001E001800180018001800FF
:1043300018001800183E180C1806180318019801E8
:10434000D801380318071806180C181C18187E7C9A
:10435000000000000000000000000000000000005D
:10436000000000000001F80180018001800180014F
:104370008001800180018001800180018001800135
:104380008001800180018001800180018001F81F8F
:10439000000000000000000000000000000000001D
:1043A000000000000000000000000000000000000D
:1043B00000000800EE1C9C338C318C318C318C3128
:1043C0008C318C318C318C318C318C318C31DE7B69
:1043D00000000000000000000000000000000000DD
:1043E00000000000000000000000000000000000CD
:1043F000000010001E0FD818383018301830183050
:1044000018301830183018301830183018307EFC3A
:10441000000000000000000000000000000000009C
:10442000000000000000000000000000000000008C
:1044300000000000C007701C103018300C600C60C9
:104440000C600C600C600C60183018303018C0071D
:10445000000000000000000000000000000000005C
:10446000000000000000000000000000000000004C
:10447000000010009E0F581838301820186018607F
:10448000186018601860186018303830781898076D
:1044900018001800180018007E000000000000003E
:1044A000000000000000000000000000000000000C
:1044B00000000000C023303C183818300C300C309D
:1044C0000C300C300C300C3008301838303CE033F5
:1044D000003000300030003000FC00000000000020
:1044E00000000000000000000000000000000000CC
:1044F000000060007E3C60666061E000E0006000FB
:104500006000600060006000600060006000FE0706
:10451000000000000000000000000000000000009B
:10452000000000000000000000000000000000008B
:1045300000000000E0273038183018201800700004
:10454000E003800F001C043004300C301C18EC0F0A
:10455000000000000000000000000000000000005B
:1045600000000000000000000000800080008000CB
:10457000C000E000FC1FC000C000C000C000C000C0
:10458000C000C000C000C000C020C0208011000FCB
:10459000000000000000000000000000000000001B
:1045A000000000000000000000000000000000000B
:1045B000000010201E3C1830183018301830183009
:1045C00018301830183018301830183830F4E0131C
:1045D00000000000000000000000000000000000DB
:1045E00000000000000000000000000000000000CB
:1045F000000000007E3C1818180838083004300409
:10460000700260026002E001C001C001C0008000D1
:10461000000000000000000000000000000000009A
:10462000000000000000000000000000000000008A
:1046300000000000DFF78E630C238C238C2398137B
:10464000981358165816700E700E700E2004200421
:10465000000000000000000000000000000000005A
:10466000000000000000000000000000000000004A
:1046700000000000FC3E70087004E004C002C001AD
:104680008003800340076006200C100C18183E7E43
:10469000000000000000000000000000000000001A
:1046A000000000000000000000000000000000000A
:1046B000000000007E7C181818083008300830040C
:1046C00060046004C002C002C00280018001800159
:1046D0008000800080004C003C00000000000000D2
:1046E00000000000000000000000000000000000CA
:1046F00000000000FC1F0C0C040E040600038003E5
:104700008001C000E0007020302038301C18FC1FF1
:104710000000000000000000000000000000000099
:104720000030000800040004000400040004000439
:1047300000040004000400040002800100020004E0
:104740000004000400040004000400040004000449
:104750000004000400080030000000010001000116
:104760000001000100010001000100010001000141
:104770000001000100010001000100010001000131
:104780000001000100010001000100010001000121
:104790000001000100010001000100000000000014
:1047A0000C0010002000200020002000200020002D
:1047B0002000200020002000400080014000200058
:1047C00020002000200020002000200020002000E9
:1047D0002000200010000C00000000003800C40081
:1047E000864002610022001C000000000000000062
:1047F00000000000000000000000000000000000B9
:1048000000000000000000000000000000000000A8
:1048100000000000000000000000D6D080008000F2
:1048200080008000FC1F8410841084108410841089
:10483000FC1F84108000800080008000BEB0F80F54
:104840000808F80F0808F80F8000FF7F0000F80F35
:1048500008080808F80F80008410A2204000D4B097
:104860000000FE3F0220F22702200220FA2F222120
:1048700022212221122912290A2E0220FE3F022083
:10488000B5E7800080008000FC1F84108410841035
:10489000FC1F841084108410FC1F845080408040D2
:1048A000007FD7D30000FE1F000800040002800133
:1048B0008000FF7F800080008000800080008000FA
:1048C000A0004000D6D0000000000000001800004A
:1048D0000800000800000800080818F8FF1F180862
:1048E0001818081818081818081818081818081898
:1048F000F8FF1F0808080008000008000008000072
:104900000800001800001800001800000000BEB0E9
:10491000000000000000400006C0FF07400006C085
:10492000FF07400006C0FF07400802003000FEFFFE
:104930003F000000C0FF07C00002C00002C000022C
:10494000C0FF0380100080110160100E3010180CA1
:104950001E30001C00000000D4B000000000000069
:10496000080030F8FF1F08001008C010083F1008AA
:104970000010080010080013C8FF100822100822B9
:10498000100822100822100821120821148860162D
:1049900048C013280010080010F8FF1F080010007E
:1049A0000000B5E70000000000000018000008004B
:1049B000000800000800F0FF0F10080410080410A1
:1049C0000804100804F0FF07100804100804100879
:1049D00004100804F0FF0710080000081000081079
:1049E00000082000183000F01F000000D7D300009E
:1049F00000000000000004F0FF0F000006000001AE
:104A000000C000002800001800001800001830FE48
:104A1000FF7F0018000018000018000018000018A0
:104A200000001800001800001800001800001F0007
:104A3000000C00000000D6D00000000000000000C4
:104A40000080000000800100008001000080010063
:104A500000800100008001001080010CF0FFFF0FBA
:104A60003080010430800104308001043080010472
:104A70003080010430800104308001043080010462
:104A8000F0FFFF0730800104308001040080010046
:104A90000080010000800100008001000080010012
:104AA0000080010000800100008001000080010002
:104AB0000080000000000000BEB000000000000008
:104AC0000000000000000001800100FFFF01000362
:104AD00080010003800100FFFF010003800100034B
:104AE000800100FFFF010081810000000300000041
:104AF000031CFCFFFF3F000040000003C00100FF5B
:104B0000FF010003C0000003C0000003C00000FF5D
:104B1000FF000001410000040100000E71000007C9
:104B20008101800101076000010E1898011C04E05A
:104B3000011800C0000000000000D4B00000000018
:104B40000000000000000008F0FFFF1F3000000C14
:104B50003000000C3000100C30FE3F0C3004000C14
:104B60003000000C3000000C3000000C3000C00C95
:104B7000F0FFFF0D3030060E3030060C3010060C02
:104B80003010060C3010060C3018860C3018860CCD
:104B90003008060D300C860D3006EE0F3002FC0D8D
:104BA0003001000CF000000C3000000CF0FFFF0F93
:104BB0003000000C1000000400000000B5E7000009
:104BC00000000000000000C0000000C0010000C0A4
:104BD000000000C0000000C0000000C00000E0FFB6
:104BE000FF0360C0000360C0000360C0000360C03A
:104BF000000360C0000360C00003E0FFFF0360C06B
:104C0000000360C0000360C0000360C0000360C018
:104C10000003E0FFFF0360C0000160C0000000C0AF
:104C2000000800C0001000C0001000C0001800C044
:104C300001380080FF1F0000000000000000D7D3F3
:104C40000000000000000000000000000000000361
:104C5000C0FFFF07000080070000C00000006000E8
:104C60000000180000000C0000800300008003001A
:104C700000800100008001080080011CFCFFFF3F54
:104C80000080010000800100008001000080010020
:104C90000080010000800100008001000080010010
:104CA0000080010000800100008001000080010000
:104CB00000FC010000E000000040000000000000D7
:104CC000E04C00080000002028000000CC1D000877
:104CD000084D00082800002000040000DC1D00082A
:104CE000006CDC0200000000000000000102030470
:104CF000060708090000000000000000010203048C
:084D0000010203040607080983
:040000050800046586
:00000001FF
